{
  "_format": "hh-sol-artifact-1",
  "contractName": "MintQuote",
  "sourceName": "contracts/MintQuote.sol",
  "abi": [
    {
      "inputs": [],
      "stateMutability": "nonpayable",
      "type": "constructor"
    },
    {
      "anonymous": false,
      "inputs": [
        {
          "indexed": true,
          "internalType": "address",
          "name": "owner",
          "type": "address"
        },
        {
          "indexed": true,
          "internalType": "address",
          "name": "approved",
          "type": "address"
        },
        {
          "indexed": true,
          "internalType": "uint256",
          "name": "tokenId",
          "type": "uint256"
        }
      ],
      "name": "Approval",
      "type": "event"
    },
    {
      "anonymous": false,
      "inputs": [
        {
          "indexed": true,
          "internalType": "address",
          "name": "owner",
          "type": "address"
        },
        {
          "indexed": true,
          "internalType": "address",
          "name": "operator",
          "type": "address"
        },
        {
          "indexed": false,
          "internalType": "bool",
          "name": "approved",
          "type": "bool"
        }
      ],
      "name": "ApprovalForAll",
      "type": "event"
    },
    {
      "anonymous": false,
      "inputs": [
        {
          "indexed": true,
          "internalType": "address",
          "name": "previousOwner",
          "type": "address"
        },
        {
          "indexed": true,
          "internalType": "address",
          "name": "newOwner",
          "type": "address"
        }
      ],
      "name": "OwnershipTransferred",
      "type": "event"
    },
    {
      "anonymous": false,
      "inputs": [
        {
          "indexed": true,
          "internalType": "address",
          "name": "from",
          "type": "address"
        },
        {
          "indexed": true,
          "internalType": "address",
          "name": "to",
          "type": "address"
        },
        {
          "indexed": true,
          "internalType": "uint256",
          "name": "tokenId",
          "type": "uint256"
        }
      ],
      "name": "Transfer",
      "type": "event"
    },
    {
      "inputs": [
        {
          "internalType": "address",
          "name": "to",
          "type": "address"
        },
        {
          "internalType": "uint256",
          "name": "tokenId",
          "type": "uint256"
        }
      ],
      "name": "approve",
      "outputs": [],
      "stateMutability": "nonpayable",
      "type": "function"
    },
    {
      "inputs": [
        {
          "internalType": "address",
          "name": "owner",
          "type": "address"
        }
      ],
      "name": "balanceOf",
      "outputs": [
        {
          "internalType": "uint256",
          "name": "",
          "type": "uint256"
        }
      ],
      "stateMutability": "view",
      "type": "function"
    },
    {
      "inputs": [
        {
          "internalType": "string",
          "name": "tokenURI",
          "type": "string"
        }
      ],
      "name": "createToken",
      "outputs": [
        {
          "internalType": "uint256",
          "name": "",
          "type": "uint256"
        }
      ],
      "stateMutability": "payable",
      "type": "function"
    },
    {
      "inputs": [
        {
          "internalType": "uint256",
          "name": "tokenId",
          "type": "uint256"
        }
      ],
      "name": "getApproved",
      "outputs": [
        {
          "internalType": "address",
          "name": "",
          "type": "address"
        }
      ],
      "stateMutability": "view",
      "type": "function"
    },
    {
      "inputs": [],
      "name": "getBalance",
      "outputs": [
        {
          "internalType": "uint256",
          "name": "",
          "type": "uint256"
        }
      ],
      "stateMutability": "view",
      "type": "function"
    },
    {
      "inputs": [
        {
          "internalType": "address",
          "name": "owner",
          "type": "address"
        },
        {
          "internalType": "address",
          "name": "operator",
          "type": "address"
        }
      ],
      "name": "isApprovedForAll",
      "outputs": [
        {
          "internalType": "bool",
          "name": "",
          "type": "bool"
        }
      ],
      "stateMutability": "view",
      "type": "function"
    },
    {
      "inputs": [],
      "name": "name",
      "outputs": [
        {
          "internalType": "string",
          "name": "",
          "type": "string"
        }
      ],
      "stateMutability": "view",
      "type": "function"
    },
    {
      "inputs": [],
      "name": "owner",
      "outputs": [
        {
          "internalType": "address",
          "name": "",
          "type": "address"
        }
      ],
      "stateMutability": "view",
      "type": "function"
    },
    {
      "inputs": [
        {
          "internalType": "uint256",
          "name": "tokenId",
          "type": "uint256"
        }
      ],
      "name": "ownerOf",
      "outputs": [
        {
          "internalType": "address",
          "name": "",
          "type": "address"
        }
      ],
      "stateMutability": "view",
      "type": "function"
    },
    {
      "inputs": [],
      "name": "renounceOwnership",
      "outputs": [],
      "stateMutability": "nonpayable",
      "type": "function"
    },
    {
      "inputs": [
        {
          "internalType": "address",
          "name": "from",
          "type": "address"
        },
        {
          "internalType": "address",
          "name": "to",
          "type": "address"
        },
        {
          "internalType": "uint256",
          "name": "tokenId",
          "type": "uint256"
        }
      ],
      "name": "safeTransferFrom",
      "outputs": [],
      "stateMutability": "nonpayable",
      "type": "function"
    },
    {
      "inputs": [
        {
          "internalType": "address",
          "name": "from",
          "type": "address"
        },
        {
          "internalType": "address",
          "name": "to",
          "type": "address"
        },
        {
          "internalType": "uint256",
          "name": "tokenId",
          "type": "uint256"
        },
        {
          "internalType": "bytes",
          "name": "_data",
          "type": "bytes"
        }
      ],
      "name": "safeTransferFrom",
      "outputs": [],
      "stateMutability": "nonpayable",
      "type": "function"
    },
    {
      "inputs": [
        {
          "internalType": "address",
          "name": "operator",
          "type": "address"
        },
        {
          "internalType": "bool",
          "name": "approved",
          "type": "bool"
        }
      ],
      "name": "setApprovalForAll",
      "outputs": [],
      "stateMutability": "nonpayable",
      "type": "function"
    },
    {
      "inputs": [
        {
          "internalType": "bytes4",
          "name": "interfaceId",
          "type": "bytes4"
        }
      ],
      "name": "supportsInterface",
      "outputs": [
        {
          "internalType": "bool",
          "name": "",
          "type": "bool"
        }
      ],
      "stateMutability": "view",
      "type": "function"
    },
    {
      "inputs": [],
      "name": "symbol",
      "outputs": [
        {
          "internalType": "string",
          "name": "",
          "type": "string"
        }
      ],
      "stateMutability": "view",
      "type": "function"
    },
    {
      "inputs": [
        {
          "internalType": "uint256",
          "name": "tokenId",
          "type": "uint256"
        }
      ],
      "name": "tokenURI",
      "outputs": [
        {
          "internalType": "string",
          "name": "",
          "type": "string"
        }
      ],
      "stateMutability": "view",
      "type": "function"
    },
    {
      "inputs": [
        {
          "internalType": "address",
          "name": "from",
          "type": "address"
        },
        {
          "internalType": "address",
          "name": "to",
          "type": "address"
        },
        {
          "internalType": "uint256",
          "name": "tokenId",
          "type": "uint256"
        }
      ],
      "name": "transferFrom",
      "outputs": [],
      "stateMutability": "nonpayable",
      "type": "function"
    },
    {
      "inputs": [
        {
          "internalType": "address",
          "name": "newOwner",
          "type": "address"
        }
      ],
      "name": "transferOwnership",
      "outputs": [],
      "stateMutability": "nonpayable",
      "type": "function"
    },
    {
      "inputs": [],
      "name": "withdrawMoney",
      "outputs": [],
      "stateMutability": "nonpayable",
      "type": "function"
    }
  ],
  "bytecode": "0x60806040523480156200001157600080fd5b506040518060400160405280600a81526020017f51756f746174696f6e73000000000000000000000000000000000000000000008152506040518060400160405280600581526020017f51554f5445000000000000000000000000000000000000000000000000000000815250816000908051906020019062000096929190620001a6565b508060019080519060200190620000af929190620001a6565b505050620000d2620000c6620000d860201b60201c565b620000e060201b60201c565b620002bb565b600033905090565b6000600760009054906101000a900473ffffffffffffffffffffffffffffffffffffffff16905081600760006101000a81548173ffffffffffffffffffffffffffffffffffffffff021916908373ffffffffffffffffffffffffffffffffffffffff1602179055508173ffffffffffffffffffffffffffffffffffffffff168173ffffffffffffffffffffffffffffffffffffffff167f8be0079c531659141344cd1fd0a4f28419497f9722a3daafe3b4186f6b6457e060405160405180910390a35050565b828054620001b49062000256565b90600052602060002090601f016020900481019282620001d8576000855562000224565b82601f10620001f357805160ff191683800117855562000224565b8280016001018555821562000224579182015b828111156200022357825182559160200191906001019062000206565b5b50905062000233919062000237565b5090565b5b808211156200025257600081600090555060010162000238565b5090565b600060028204905060018216806200026f57607f821691505b602082108114156200028657620002856200028c565b5b50919050565b7f4e487b7100000000000000000000000000000000000000000000000000000000600052602260045260246000fd5b61322980620002cb6000396000f3fe6080604052600436106101145760003560e01c806370a08231116100a0578063ac44600211610064578063ac446002146103a4578063b88d4fde146103bb578063c87b56dd146103e4578063e985e9c514610421578063f2fde38b1461045e57610114565b806370a08231146102d1578063715018a61461030e5780638da5cb5b1461032557806395d89b4114610350578063a22cb4651461037b57610114565b806312065fe0116100e757806312065fe0146101e757806323b872dd1461021257806342842e0e1461023b57806345576f94146102645780636352211e1461029457610114565b806301ffc9a71461011957806306fdde0314610156578063081812fc14610181578063095ea7b3146101be575b600080fd5b34801561012557600080fd5b50610140600480360381019061013b9190612105565b610487565b60405161014d91906125b5565b60405180910390f35b34801561016257600080fd5b5061016b610569565b60405161017891906125d0565b60405180910390f35b34801561018d57600080fd5b506101a860048036038101906101a39190612198565b6105fb565b6040516101b5919061254e565b60405180910390f35b3480156101ca57600080fd5b506101e560048036038101906101e091906120c9565b610680565b005b3480156101f357600080fd5b506101fc610798565b6040516102099190612852565b60405180910390f35b34801561021e57600080fd5b5061023960048036038101906102349190611fc3565b6107a0565b005b34801561024757600080fd5b50610262600480360381019061025d9190611fc3565b610800565b005b61027e60048036038101906102799190612157565b610820565b60405161028b9190612852565b60405180910390f35b3480156102a057600080fd5b506102bb60048036038101906102b69190612198565b6108a0565b6040516102c8919061254e565b60405180910390f35b3480156102dd57600080fd5b506102f860048036038101906102f39190611f5e565b610952565b6040516103059190612852565b60405180910390f35b34801561031a57600080fd5b50610323610a0a565b005b34801561033157600080fd5b5061033a610a92565b604051610347919061254e565b60405180910390f35b34801561035c57600080fd5b50610365610abc565b60405161037291906125d0565b60405180910390f35b34801561038757600080fd5b506103a2600480360381019061039d919061208d565b610b4e565b005b3480156103b057600080fd5b506103b9610b64565b005b3480156103c757600080fd5b506103e260048036038101906103dd9190612012565b610c36565b005b3480156103f057600080fd5b5061040b60048036038101906104069190612198565b610c98565b60405161041891906125d0565b60405180910390f35b34801561042d57600080fd5b5061044860048036038101906104439190611f87565b610dea565b60405161045591906125b5565b60405180910390f35b34801561046a57600080fd5b5061048560048036038101906104809190611f5e565b610e7e565b005b60007f80ac58cd000000000000000000000000000000000000000000000000000000007bffffffffffffffffffffffffffffffffffffffffffffffffffffffff1916827bffffffffffffffffffffffffffffffffffffffffffffffffffffffff1916148061055257507f5b5e139f000000000000000000000000000000000000000000000000000000007bffffffffffffffffffffffffffffffffffffffffffffffffffffffff1916827bffffffffffffffffffffffffffffffffffffffffffffffffffffffff1916145b80610562575061056182610f76565b5b9050919050565b60606000805461057890612aa8565b80601f01602080910402602001604051908101604052809291908181526020018280546105a490612aa8565b80156105f15780601f106105c6576101008083540402835291602001916105f1565b820191906000526020600020905b8154815290600101906020018083116105d457829003601f168201915b5050505050905090565b600061060682610fe0565b610645576040517f08c379a000000000000000000000000000000000000000000000000000000000815260040161063c90612792565b60405180910390fd5b6004600083815260200190815260200160002060009054906101000a900473ffffffffffffffffffffffffffffffffffffffff169050919050565b600061068b826108a0565b90508073ffffffffffffffffffffffffffffffffffffffff168373ffffffffffffffffffffffffffffffffffffffff1614156106fc576040517f08c379a00000000000000000000000000000000000000000000000000000000081526004016106f3906127f2565b60405180910390fd5b8073ffffffffffffffffffffffffffffffffffffffff1661071b61104c565b73ffffffffffffffffffffffffffffffffffffffff16148061074a57506107498161074461104c565b610dea565b5b610789576040517f08c379a0000000000000000000000000000000000000000000000000000000008152600401610780906126d2565b60405180910390fd5b6107938383611054565b505050565b600047905090565b6107b16107ab61104c565b8261110d565b6107f0576040517f08c379a00000000000000000000000000000000000000000000000000000000081526004016107e790612812565b60405180910390fd5b6107fb8383836111eb565b505050565b61081b83838360405180602001604052806000815250610c36565b505050565b600066038d7ea4c68000341161086b576040517f08c379a000000000000000000000000000000000000000000000000000000000815260040161086290612832565b60405180910390fd5b6108756008611452565b60006108816008611468565b905061088d3382611476565b6108978184611650565b80915050919050565b6000806002600084815260200190815260200160002060009054906101000a900473ffffffffffffffffffffffffffffffffffffffff169050600073ffffffffffffffffffffffffffffffffffffffff168173ffffffffffffffffffffffffffffffffffffffff161415610949576040517f08c379a000000000000000000000000000000000000000000000000000000000815260040161094090612712565b60405180910390fd5b80915050919050565b60008073ffffffffffffffffffffffffffffffffffffffff168273ffffffffffffffffffffffffffffffffffffffff1614156109c3576040517f08c379a00000000000000000000000000000000000000000000000000000000081526004016109ba906126f2565b60405180910390fd5b600360008373ffffffffffffffffffffffffffffffffffffffff1673ffffffffffffffffffffffffffffffffffffffff168152602001908152602001600020549050919050565b610a1261104c565b73ffffffffffffffffffffffffffffffffffffffff16610a30610a92565b73ffffffffffffffffffffffffffffffffffffffff1614610a86576040517f08c379a0000000000000000000000000000000000000000000000000000000008152600401610a7d906127b2565b60405180910390fd5b610a9060006116c4565b565b6000600760009054906101000a900473ffffffffffffffffffffffffffffffffffffffff16905090565b606060018054610acb90612aa8565b80601f0160208091040260200160405190810160405280929190818152602001828054610af790612aa8565b8015610b445780601f10610b1957610100808354040283529160200191610b44565b820191906000526020600020905b815481529060010190602001808311610b2757829003601f168201915b5050505050905090565b610b60610b5961104c565b838361178a565b5050565b610b6c61104c565b73ffffffffffffffffffffffffffffffffffffffff16610b8a610a92565b73ffffffffffffffffffffffffffffffffffffffff1614610be0576040517f08c379a0000000000000000000000000000000000000000000000000000000008152600401610bd7906127b2565b60405180910390fd5b60003390508073ffffffffffffffffffffffffffffffffffffffff166108fc610c07610798565b9081150290604051600060405180830381858888f19350505050158015610c32573d6000803e3d6000fd5b5050565b610c47610c4161104c565b8361110d565b610c86576040517f08c379a0000000000000000000000000000000000000000000000000000000008152600401610c7d90612812565b60405180910390fd5b610c92848484846118f7565b50505050565b6060610ca382610fe0565b610ce2576040517f08c379a0000000000000000000000000000000000000000000000000000000008152600401610cd990612772565b60405180910390fd5b6000600660008481526020019081526020016000208054610d0290612aa8565b80601f0160208091040260200160405190810160405280929190818152602001828054610d2e90612aa8565b8015610d7b5780601f10610d5057610100808354040283529160200191610d7b565b820191906000526020600020905b815481529060010190602001808311610d5e57829003601f168201915b505050505090506000610d8c611953565b9050600081511415610da2578192505050610de5565b600082511115610dd7578082604051602001610dbf92919061252a565b60405160208183030381529060405292505050610de5565b610de08461196a565b925050505b919050565b6000600560008473ffffffffffffffffffffffffffffffffffffffff1673ffffffffffffffffffffffffffffffffffffffff16815260200190815260200160002060008373ffffffffffffffffffffffffffffffffffffffff1673ffffffffffffffffffffffffffffffffffffffff16815260200190815260200160002060009054906101000a900460ff16905092915050565b610e8661104c565b73ffffffffffffffffffffffffffffffffffffffff16610ea4610a92565b73ffffffffffffffffffffffffffffffffffffffff1614610efa576040517f08c379a0000000000000000000000000000000000000000000000000000000008152600401610ef1906127b2565b60405180910390fd5b600073ffffffffffffffffffffffffffffffffffffffff168173ffffffffffffffffffffffffffffffffffffffff161415610f6a576040517f08c379a0000000000000000000000000000000000000000000000000000000008152600401610f6190612612565b60405180910390fd5b610f73816116c4565b50565b60007f01ffc9a7000000000000000000000000000000000000000000000000000000007bffffffffffffffffffffffffffffffffffffffffffffffffffffffff1916827bffffffffffffffffffffffffffffffffffffffffffffffffffffffff1916149050919050565b60008073ffffffffffffffffffffffffffffffffffffffff166002600084815260200190815260200160002060009054906101000a900473ffffffffffffffffffffffffffffffffffffffff1673ffffffffffffffffffffffffffffffffffffffff1614159050919050565b600033905090565b816004600083815260200190815260200160002060006101000a81548173ffffffffffffffffffffffffffffffffffffffff021916908373ffffffffffffffffffffffffffffffffffffffff160217905550808273ffffffffffffffffffffffffffffffffffffffff166110c7836108a0565b73ffffffffffffffffffffffffffffffffffffffff167f8c5be1e5ebec7d5bd14f71427d1e84f3dd0314c0f7b2291e5b200ac8c7c3b92560405160405180910390a45050565b600061111882610fe0565b611157576040517f08c379a000000000000000000000000000000000000000000000000000000000815260040161114e906126b2565b60405180910390fd5b6000611162836108a0565b90508073ffffffffffffffffffffffffffffffffffffffff168473ffffffffffffffffffffffffffffffffffffffff1614806111d157508373ffffffffffffffffffffffffffffffffffffffff166111b9846105fb565b73ffffffffffffffffffffffffffffffffffffffff16145b806111e257506111e18185610dea565b5b91505092915050565b8273ffffffffffffffffffffffffffffffffffffffff1661120b826108a0565b73ffffffffffffffffffffffffffffffffffffffff1614611261576040517f08c379a000000000000000000000000000000000000000000000000000000000815260040161125890612632565b60405180910390fd5b600073ffffffffffffffffffffffffffffffffffffffff168273ffffffffffffffffffffffffffffffffffffffff1614156112d1576040517f08c379a00000000000000000000000000000000000000000000000000000000081526004016112c890612672565b60405180910390fd5b6112dc838383611a11565b6112e7600082611054565b6001600360008573ffffffffffffffffffffffffffffffffffffffff1673ffffffffffffffffffffffffffffffffffffffff168152602001908152602001600020600082825461133791906129be565b925050819055506001600360008473ffffffffffffffffffffffffffffffffffffffff1673ffffffffffffffffffffffffffffffffffffffff168152602001908152602001600020600082825461138e9190612937565b92505081905550816002600083815260200190815260200160002060006101000a81548173ffffffffffffffffffffffffffffffffffffffff021916908373ffffffffffffffffffffffffffffffffffffffff160217905550808273ffffffffffffffffffffffffffffffffffffffff168473ffffffffffffffffffffffffffffffffffffffff167fddf252ad1be2c89b69c2b068fc378daa952ba7f163c4a11628f55a4df523b3ef60405160405180910390a461144d838383611a16565b505050565b6001816000016000828254019250508190555050565b600081600001549050919050565b600073ffffffffffffffffffffffffffffffffffffffff168273ffffffffffffffffffffffffffffffffffffffff1614156114e6576040517f08c379a00000000000000000000000000000000000000000000000000000000081526004016114dd90612752565b60405180910390fd5b6114ef81610fe0565b1561152f576040517f08c379a000000000000000000000000000000000000000000000000000000000815260040161152690612652565b60405180910390fd5b61153b60008383611a11565b6001600360008473ffffffffffffffffffffffffffffffffffffffff1673ffffffffffffffffffffffffffffffffffffffff168152602001908152602001600020600082825461158b9190612937565b92505081905550816002600083815260200190815260200160002060006101000a81548173ffffffffffffffffffffffffffffffffffffffff021916908373ffffffffffffffffffffffffffffffffffffffff160217905550808273ffffffffffffffffffffffffffffffffffffffff16600073ffffffffffffffffffffffffffffffffffffffff167fddf252ad1be2c89b69c2b068fc378daa952ba7f163c4a11628f55a4df523b3ef60405160405180910390a461164c60008383611a16565b5050565b61165982610fe0565b611698576040517f08c379a000000000000000000000000000000000000000000000000000000000815260040161168f90612732565b60405180910390fd5b806006600084815260200190815260200160002090805190602001906116bf929190611d82565b505050565b6000600760009054906101000a900473ffffffffffffffffffffffffffffffffffffffff16905081600760006101000a81548173ffffffffffffffffffffffffffffffffffffffff021916908373ffffffffffffffffffffffffffffffffffffffff1602179055508173ffffffffffffffffffffffffffffffffffffffff168173ffffffffffffffffffffffffffffffffffffffff167f8be0079c531659141344cd1fd0a4f28419497f9722a3daafe3b4186f6b6457e060405160405180910390a35050565b8173ffffffffffffffffffffffffffffffffffffffff168373ffffffffffffffffffffffffffffffffffffffff1614156117f9576040517f08c379a00000000000000000000000000000000000000000000000000000000081526004016117f090612692565b60405180910390fd5b80600560008573ffffffffffffffffffffffffffffffffffffffff1673ffffffffffffffffffffffffffffffffffffffff16815260200190815260200160002060008473ffffffffffffffffffffffffffffffffffffffff1673ffffffffffffffffffffffffffffffffffffffff16815260200190815260200160002060006101000a81548160ff0219169083151502179055508173ffffffffffffffffffffffffffffffffffffffff168373ffffffffffffffffffffffffffffffffffffffff167f17307eab39ab6107e8899845ad3d59bd9653f200f220920489ca2b5937696c31836040516118ea91906125b5565b60405180910390a3505050565b6119028484846111eb565b61190e84848484611a1b565b61194d576040517f08c379a0000000000000000000000000000000000000000000000000000000008152600401611944906125f2565b60405180910390fd5b50505050565b606060405180602001604052806000815250905090565b606061197582610fe0565b6119b4576040517f08c379a00000000000000000000000000000000000000000000000000000000081526004016119ab906127d2565b60405180910390fd5b60006119be611953565b905060008151116119de5760405180602001604052806000815250611a09565b806119e884611bb2565b6040516020016119f992919061252a565b6040516020818303038152906040525b915050919050565b505050565b505050565b6000611a3c8473ffffffffffffffffffffffffffffffffffffffff16611d5f565b15611ba5578373ffffffffffffffffffffffffffffffffffffffff1663150b7a02611a6561104c565b8786866040518563ffffffff1660e01b8152600401611a879493929190612569565b602060405180830381600087803b158015611aa157600080fd5b505af1925050508015611ad257506040513d601f19601f82011682018060405250810190611acf919061212e565b60015b611b55573d8060008114611b02576040519150601f19603f3d011682016040523d82523d6000602084013e611b07565b606091505b50600081511415611b4d576040517f08c379a0000000000000000000000000000000000000000000000000000000008152600401611b44906125f2565b60405180910390fd5b805181602001fd5b63150b7a0260e01b7bffffffffffffffffffffffffffffffffffffffffffffffffffffffff1916817bffffffffffffffffffffffffffffffffffffffffffffffffffffffff191614915050611baa565b600190505b949350505050565b60606000821415611bfa576040518060400160405280600181526020017f30000000000000000000000000000000000000000000000000000000000000008152509050611d5a565b600082905060005b60008214611c2c578080611c1590612b0b565b915050600a82611c25919061298d565b9150611c02565b60008167ffffffffffffffff811115611c6e577f4e487b7100000000000000000000000000000000000000000000000000000000600052604160045260246000fd5b6040519080825280601f01601f191660200182016040528015611ca05781602001600182028036833780820191505090505b5090505b60008514611d5357600182611cb991906129be565b9150600a85611cc89190612b54565b6030611cd49190612937565b60f81b818381518110611d10577f4e487b7100000000000000000000000000000000000000000000000000000000600052603260045260246000fd5b60200101907effffffffffffffffffffffffffffffffffffffffffffffffffffffffffffff1916908160001a905350600a85611d4c919061298d565b9450611ca4565b8093505050505b919050565b6000808273ffffffffffffffffffffffffffffffffffffffff163b119050919050565b828054611d8e90612aa8565b90600052602060002090601f016020900481019282611db05760008555611df7565b82601f10611dc957805160ff1916838001178555611df7565b82800160010185558215611df7579182015b82811115611df6578251825591602001919060010190611ddb565b5b509050611e049190611e08565b5090565b5b80821115611e21576000816000905550600101611e09565b5090565b6000611e38611e3384612892565b61286d565b905082815260208101848484011115611e5057600080fd5b611e5b848285612a66565b509392505050565b6000611e76611e71846128c3565b61286d565b905082815260208101848484011115611e8e57600080fd5b611e99848285612a66565b509392505050565b600081359050611eb081613197565b92915050565b600081359050611ec5816131ae565b92915050565b600081359050611eda816131c5565b92915050565b600081519050611eef816131c5565b92915050565b600082601f830112611f0657600080fd5b8135611f16848260208601611e25565b91505092915050565b600082601f830112611f3057600080fd5b8135611f40848260208601611e63565b91505092915050565b600081359050611f58816131dc565b92915050565b600060208284031215611f7057600080fd5b6000611f7e84828501611ea1565b91505092915050565b60008060408385031215611f9a57600080fd5b6000611fa885828601611ea1565b9250506020611fb985828601611ea1565b9150509250929050565b600080600060608486031215611fd857600080fd5b6000611fe686828701611ea1565b9350506020611ff786828701611ea1565b925050604061200886828701611f49565b9150509250925092565b6000806000806080858703121561202857600080fd5b600061203687828801611ea1565b945050602061204787828801611ea1565b935050604061205887828801611f49565b925050606085013567ffffffffffffffff81111561207557600080fd5b61208187828801611ef5565b91505092959194509250565b600080604083850312156120a057600080fd5b60006120ae85828601611ea1565b92505060206120bf85828601611eb6565b9150509250929050565b600080604083850312156120dc57600080fd5b60006120ea85828601611ea1565b92505060206120fb85828601611f49565b9150509250929050565b60006020828403121561211757600080fd5b600061212584828501611ecb565b91505092915050565b60006020828403121561214057600080fd5b600061214e84828501611ee0565b91505092915050565b60006020828403121561216957600080fd5b600082013567ffffffffffffffff81111561218357600080fd5b61218f84828501611f1f565b91505092915050565b6000602082840312156121aa57600080fd5b60006121b884828501611f49565b91505092915050565b6121ca816129f2565b82525050565b6121d981612a04565b82525050565b60006121ea826128f4565b6121f4818561290a565b9350612204818560208601612a75565b61220d81612c41565b840191505092915050565b6000612223826128ff565b61222d818561291b565b935061223d818560208601612a75565b61224681612c41565b840191505092915050565b600061225c826128ff565b612266818561292c565b9350612276818560208601612a75565b80840191505092915050565b600061228f60328361291b565b915061229a82612c52565b604082019050919050565b60006122b260268361291b565b91506122bd82612ca1565b604082019050919050565b60006122d560258361291b565b91506122e082612cf0565b604082019050919050565b60006122f8601c8361291b565b915061230382612d3f565b602082019050919050565b600061231b60248361291b565b915061232682612d68565b604082019050919050565b600061233e60198361291b565b915061234982612db7565b602082019050919050565b6000612361602c8361291b565b915061236c82612de0565b604082019050919050565b600061238460388361291b565b915061238f82612e2f565b604082019050919050565b60006123a7602a8361291b565b91506123b282612e7e565b604082019050919050565b60006123ca60298361291b565b91506123d582612ecd565b604082019050919050565b60006123ed602e8361291b565b91506123f882612f1c565b604082019050919050565b600061241060208361291b565b915061241b82612f6b565b602082019050919050565b600061243360318361291b565b915061243e82612f94565b604082019050919050565b6000612456602c8361291b565b915061246182612fe3565b604082019050919050565b600061247960208361291b565b915061248482613032565b602082019050919050565b600061249c602f8361291b565b91506124a78261305b565b604082019050919050565b60006124bf60218361291b565b91506124ca826130aa565b604082019050919050565b60006124e260318361291b565b91506124ed826130f9565b604082019050919050565b600061250560218361291b565b915061251082613148565b604082019050919050565b61252481612a5c565b82525050565b60006125368285612251565b91506125428284612251565b91508190509392505050565b600060208201905061256360008301846121c1565b92915050565b600060808201905061257e60008301876121c1565b61258b60208301866121c1565b612598604083018561251b565b81810360608301526125aa81846121df565b905095945050505050565b60006020820190506125ca60008301846121d0565b92915050565b600060208201905081810360008301526125ea8184612218565b905092915050565b6000602082019050818103600083015261260b81612282565b9050919050565b6000602082019050818103600083015261262b816122a5565b9050919050565b6000602082019050818103600083015261264b816122c8565b9050919050565b6000602082019050818103600083015261266b816122eb565b9050919050565b6000602082019050818103600083015261268b8161230e565b9050919050565b600060208201905081810360008301526126ab81612331565b9050919050565b600060208201905081810360008301526126cb81612354565b9050919050565b600060208201905081810360008301526126eb81612377565b9050919050565b6000602082019050818103600083015261270b8161239a565b9050919050565b6000602082019050818103600083015261272b816123bd565b9050919050565b6000602082019050818103600083015261274b816123e0565b9050919050565b6000602082019050818103600083015261276b81612403565b9050919050565b6000602082019050818103600083015261278b81612426565b9050919050565b600060208201905081810360008301526127ab81612449565b9050919050565b600060208201905081810360008301526127cb8161246c565b9050919050565b600060208201905081810360008301526127eb8161248f565b9050919050565b6000602082019050818103600083015261280b816124b2565b9050919050565b6000602082019050818103600083015261282b816124d5565b9050919050565b6000602082019050818103600083015261284b816124f8565b9050919050565b6000602082019050612867600083018461251b565b92915050565b6000612877612888565b90506128838282612ada565b919050565b6000604051905090565b600067ffffffffffffffff8211156128ad576128ac612c12565b5b6128b682612c41565b9050602081019050919050565b600067ffffffffffffffff8211156128de576128dd612c12565b5b6128e782612c41565b9050602081019050919050565b600081519050919050565b600081519050919050565b600082825260208201905092915050565b600082825260208201905092915050565b600081905092915050565b600061294282612a5c565b915061294d83612a5c565b9250827fffffffffffffffffffffffffffffffffffffffffffffffffffffffffffffffff0382111561298257612981612b85565b5b828201905092915050565b600061299882612a5c565b91506129a383612a5c565b9250826129b3576129b2612bb4565b5b828204905092915050565b60006129c982612a5c565b91506129d483612a5c565b9250828210156129e7576129e6612b85565b5b828203905092915050565b60006129fd82612a3c565b9050919050565b60008115159050919050565b60007fffffffff0000000000000000000000000000000000000000000000000000000082169050919050565b600073ffffffffffffffffffffffffffffffffffffffff82169050919050565b6000819050919050565b82818337600083830152505050565b60005b83811015612a93578082015181840152602081019050612a78565b83811115612aa2576000848401525b50505050565b60006002820490506001821680612ac057607f821691505b60208210811415612ad457612ad3612be3565b5b50919050565b612ae382612c41565b810181811067ffffffffffffffff82111715612b0257612b01612c12565b5b80604052505050565b6000612b1682612a5c565b91507fffffffffffffffffffffffffffffffffffffffffffffffffffffffffffffffff821415612b4957612b48612b85565b5b600182019050919050565b6000612b5f82612a5c565b9150612b6a83612a5c565b925082612b7a57612b79612bb4565b5b828206905092915050565b7f4e487b7100000000000000000000000000000000000000000000000000000000600052601160045260246000fd5b7f4e487b7100000000000000000000000000000000000000000000000000000000600052601260045260246000fd5b7f4e487b7100000000000000000000000000000000000000000000000000000000600052602260045260246000fd5b7f4e487b7100000000000000000000000000000000000000000000000000000000600052604160045260246000fd5b6000601f19601f8301169050919050565b7f4552433732313a207472616e7366657220746f206e6f6e20455243373231526560008201527f63656976657220696d706c656d656e7465720000000000000000000000000000602082015250565b7f4f776e61626c653a206e6577206f776e657220697320746865207a65726f206160008201527f6464726573730000000000000000000000000000000000000000000000000000602082015250565b7f4552433732313a207472616e736665722066726f6d20696e636f72726563742060008201527f6f776e6572000000000000000000000000000000000000000000000000000000602082015250565b7f4552433732313a20746f6b656e20616c7265616479206d696e74656400000000600082015250565b7f4552433732313a207472616e7366657220746f20746865207a65726f2061646460008201527f7265737300000000000000000000000000000000000000000000000000000000602082015250565b7f4552433732313a20617070726f766520746f2063616c6c657200000000000000600082015250565b7f4552433732313a206f70657261746f7220717565727920666f72206e6f6e657860008201527f697374656e7420746f6b656e0000000000000000000000000000000000000000602082015250565b7f4552433732313a20617070726f76652063616c6c6572206973206e6f74206f7760008201527f6e6572206e6f7220617070726f76656420666f7220616c6c0000000000000000602082015250565b7f4552433732313a2062616c616e636520717565727920666f7220746865207a6560008201527f726f206164647265737300000000000000000000000000000000000000000000602082015250565b7f4552433732313a206f776e657220717565727920666f72206e6f6e657869737460008201527f656e7420746f6b656e0000000000000000000000000000000000000000000000602082015250565b7f45524337323155524953746f726167653a2055524920736574206f66206e6f6e60008201527f6578697374656e7420746f6b656e000000000000000000000000000000000000602082015250565b7f4552433732313a206d696e7420746f20746865207a65726f2061646472657373600082015250565b7f45524337323155524953746f726167653a2055524920717565727920666f722060008201527f6e6f6e6578697374656e7420746f6b656e000000000000000000000000000000602082015250565b7f4552433732313a20617070726f76656420717565727920666f72206e6f6e657860008201527f697374656e7420746f6b656e0000000000000000000000000000000000000000602082015250565b7f4f776e61626c653a2063616c6c6572206973206e6f7420746865206f776e6572600082015250565b7f4552433732314d657461646174613a2055524920717565727920666f72206e6f60008201527f6e6578697374656e7420746f6b656e0000000000000000000000000000000000602082015250565b7f4552433732313a20617070726f76616c20746f2063757272656e74206f776e6560008201527f7200000000000000000000000000000000000000000000000000000000000000602082015250565b7f4552433732313a207472616e736665722063616c6c6572206973206e6f74206f60008201527f776e6572206e6f7220617070726f766564000000000000000000000000000000602082015250565b7f4e6f7420656e6f756768204554482073656e743b20636865636b20707269636560008201527f2100000000000000000000000000000000000000000000000000000000000000602082015250565b6131a0816129f2565b81146131ab57600080fd5b50565b6131b781612a04565b81146131c257600080fd5b50565b6131ce81612a10565b81146131d957600080fd5b50565b6131e581612a5c565b81146131f057600080fd5b5056fea26469706673582212202a98325f9f8cdbe0234747f7055f70de26bd47023c46c6bf75fa06f02e723c7564736f6c63430008040033",
  "linkReferences": {},
  "deployedLinkReferences": {}
}