{
  "_format": "hh-sol-artifact-1",
  "contractName": "MintQuote",
  "sourceName": "contracts/MintQuote.sol",
  "abi": [
    {
      "inputs": [],
      "stateMutability": "nonpayable",
      "type": "constructor"
    },
    {
      "anonymous": false,
      "inputs": [
        {
          "indexed": true,
          "internalType": "address",
          "name": "owner",
          "type": "address"
        },
        {
          "indexed": true,
          "internalType": "address",
          "name": "approved",
          "type": "address"
        },
        {
          "indexed": true,
          "internalType": "uint256",
          "name": "tokenId",
          "type": "uint256"
        }
      ],
      "name": "Approval",
      "type": "event"
    },
    {
      "anonymous": false,
      "inputs": [
        {
          "indexed": true,
          "internalType": "address",
          "name": "owner",
          "type": "address"
        },
        {
          "indexed": true,
          "internalType": "address",
          "name": "operator",
          "type": "address"
        },
        {
          "indexed": false,
          "internalType": "bool",
          "name": "approved",
          "type": "bool"
        }
      ],
      "name": "ApprovalForAll",
      "type": "event"
    },
    {
      "anonymous": false,
      "inputs": [
        {
          "indexed": true,
          "internalType": "address",
          "name": "previousOwner",
          "type": "address"
        },
        {
          "indexed": true,
          "internalType": "address",
          "name": "newOwner",
          "type": "address"
        }
      ],
      "name": "OwnershipTransferred",
      "type": "event"
    },
    {
      "anonymous": false,
      "inputs": [
        {
          "indexed": true,
          "internalType": "address",
          "name": "from",
          "type": "address"
        },
        {
          "indexed": true,
          "internalType": "address",
          "name": "to",
          "type": "address"
        },
        {
          "indexed": true,
          "internalType": "uint256",
          "name": "tokenId",
          "type": "uint256"
        }
      ],
      "name": "Transfer",
      "type": "event"
    },
    {
      "inputs": [
        {
          "internalType": "address",
          "name": "to",
          "type": "address"
        },
        {
          "internalType": "uint256",
          "name": "tokenId",
          "type": "uint256"
        }
      ],
      "name": "approve",
      "outputs": [],
      "stateMutability": "nonpayable",
      "type": "function"
    },
    {
      "inputs": [
        {
          "internalType": "address",
          "name": "owner",
          "type": "address"
        }
      ],
      "name": "balanceOf",
      "outputs": [
        {
          "internalType": "uint256",
          "name": "",
          "type": "uint256"
        }
      ],
      "stateMutability": "view",
      "type": "function"
    },
    {
      "inputs": [
        {
          "internalType": "string",
          "name": "tokenURI",
          "type": "string"
        }
      ],
      "name": "createToken",
      "outputs": [
        {
          "internalType": "uint256",
          "name": "",
          "type": "uint256"
        }
      ],
      "stateMutability": "payable",
      "type": "function"
    },
    {
      "inputs": [
        {
          "internalType": "uint256",
          "name": "tokenId",
          "type": "uint256"
        }
      ],
      "name": "getApproved",
      "outputs": [
        {
          "internalType": "address",
          "name": "",
          "type": "address"
        }
      ],
      "stateMutability": "view",
      "type": "function"
    },
    {
      "inputs": [
        {
          "internalType": "address",
          "name": "owner",
          "type": "address"
        },
        {
          "internalType": "address",
          "name": "operator",
          "type": "address"
        }
      ],
      "name": "isApprovedForAll",
      "outputs": [
        {
          "internalType": "bool",
          "name": "",
          "type": "bool"
        }
      ],
      "stateMutability": "view",
      "type": "function"
    },
    {
      "inputs": [],
      "name": "name",
      "outputs": [
        {
          "internalType": "string",
          "name": "",
          "type": "string"
        }
      ],
      "stateMutability": "view",
      "type": "function"
    },
    {
      "inputs": [],
      "name": "owner",
      "outputs": [
        {
          "internalType": "address",
          "name": "",
          "type": "address"
        }
      ],
      "stateMutability": "view",
      "type": "function"
    },
    {
      "inputs": [
        {
          "internalType": "uint256",
          "name": "tokenId",
          "type": "uint256"
        }
      ],
      "name": "ownerOf",
      "outputs": [
        {
          "internalType": "address",
          "name": "",
          "type": "address"
        }
      ],
      "stateMutability": "view",
      "type": "function"
    },
    {
      "inputs": [],
      "name": "renounceOwnership",
      "outputs": [],
      "stateMutability": "nonpayable",
      "type": "function"
    },
    {
      "inputs": [
        {
          "internalType": "address",
          "name": "from",
          "type": "address"
        },
        {
          "internalType": "address",
          "name": "to",
          "type": "address"
        },
        {
          "internalType": "uint256",
          "name": "tokenId",
          "type": "uint256"
        }
      ],
      "name": "safeTransferFrom",
      "outputs": [],
      "stateMutability": "nonpayable",
      "type": "function"
    },
    {
      "inputs": [
        {
          "internalType": "address",
          "name": "from",
          "type": "address"
        },
        {
          "internalType": "address",
          "name": "to",
          "type": "address"
        },
        {
          "internalType": "uint256",
          "name": "tokenId",
          "type": "uint256"
        },
        {
          "internalType": "bytes",
          "name": "_data",
          "type": "bytes"
        }
      ],
      "name": "safeTransferFrom",
      "outputs": [],
      "stateMutability": "nonpayable",
      "type": "function"
    },
    {
      "inputs": [
        {
          "internalType": "address",
          "name": "operator",
          "type": "address"
        },
        {
          "internalType": "bool",
          "name": "approved",
          "type": "bool"
        }
      ],
      "name": "setApprovalForAll",
      "outputs": [],
      "stateMutability": "nonpayable",
      "type": "function"
    },
    {
      "inputs": [
        {
          "internalType": "bytes4",
          "name": "interfaceId",
          "type": "bytes4"
        }
      ],
      "name": "supportsInterface",
      "outputs": [
        {
          "internalType": "bool",
          "name": "",
          "type": "bool"
        }
      ],
      "stateMutability": "view",
      "type": "function"
    },
    {
      "inputs": [],
      "name": "symbol",
      "outputs": [
        {
          "internalType": "string",
          "name": "",
          "type": "string"
        }
      ],
      "stateMutability": "view",
      "type": "function"
    },
    {
      "inputs": [
        {
          "internalType": "uint256",
          "name": "tokenId",
          "type": "uint256"
        }
      ],
      "name": "tokenURI",
      "outputs": [
        {
          "internalType": "string",
          "name": "",
          "type": "string"
        }
      ],
      "stateMutability": "view",
      "type": "function"
    },
    {
      "inputs": [
        {
          "internalType": "address",
          "name": "from",
          "type": "address"
        },
        {
          "internalType": "address",
          "name": "to",
          "type": "address"
        },
        {
          "internalType": "uint256",
          "name": "tokenId",
          "type": "uint256"
        }
      ],
      "name": "transferFrom",
      "outputs": [],
      "stateMutability": "nonpayable",
      "type": "function"
    },
    {
      "inputs": [
        {
          "internalType": "address",
          "name": "newOwner",
          "type": "address"
        }
      ],
      "name": "transferOwnership",
      "outputs": [],
      "stateMutability": "nonpayable",
      "type": "function"
    }
  ],
  "bytecode": "0x60806040523480156200001157600080fd5b506040518060400160405280600981526020017f51756f746174696f6e00000000000000000000000000000000000000000000008152506040518060400160405280600581526020017f51554f5445000000000000000000000000000000000000000000000000000000815250816000908051906020019062000096929190620001a6565b508060019080519060200190620000af929190620001a6565b505050620000d2620000c6620000d860201b60201c565b620000e060201b60201c565b620002bb565b600033905090565b6000600760009054906101000a900473ffffffffffffffffffffffffffffffffffffffff16905081600760006101000a81548173ffffffffffffffffffffffffffffffffffffffff021916908373ffffffffffffffffffffffffffffffffffffffff1602179055508173ffffffffffffffffffffffffffffffffffffffff168173ffffffffffffffffffffffffffffffffffffffff167f8be0079c531659141344cd1fd0a4f28419497f9722a3daafe3b4186f6b6457e060405160405180910390a35050565b828054620001b49062000256565b90600052602060002090601f016020900481019282620001d8576000855562000224565b82601f10620001f357805160ff191683800117855562000224565b8280016001018555821562000224579182015b828111156200022357825182559160200191906001019062000206565b5b50905062000233919062000237565b5090565b5b808211156200025257600081600090555060010162000238565b5090565b600060028204905060018216806200026f57607f821691505b602082108114156200028657620002856200028c565b5b50919050565b7f4e487b7100000000000000000000000000000000000000000000000000000000600052602260045260246000fd5b61301c80620002cb6000396000f3fe6080604052600436106100fe5760003560e01c806370a0823111610095578063a22cb46511610064578063a22cb4651461033a578063b88d4fde14610363578063c87b56dd1461038c578063e985e9c5146103c9578063f2fde38b14610406576100fe565b806370a0823114610290578063715018a6146102cd5780638da5cb5b146102e457806395d89b411461030f576100fe565b806323b872dd116100d157806323b872dd146101d157806342842e0e146101fa57806345576f94146102235780636352211e14610253576100fe565b806301ffc9a71461010357806306fdde0314610140578063081812fc1461016b578063095ea7b3146101a8575b600080fd5b34801561010f57600080fd5b5061012a60048036038101906101259190611f8a565b61042f565b6040516101379190612417565b60405180910390f35b34801561014c57600080fd5b50610155610511565b6040516101629190612432565b60405180910390f35b34801561017757600080fd5b50610192600480360381019061018d919061201d565b6105a3565b60405161019f91906123b0565b60405180910390f35b3480156101b457600080fd5b506101cf60048036038101906101ca9190611f4e565b610628565b005b3480156101dd57600080fd5b506101f860048036038101906101f39190611e48565b610740565b005b34801561020657600080fd5b50610221600480360381019061021c9190611e48565b6107a0565b005b61023d60048036038101906102389190611fdc565b6107c0565b60405161024a9190612694565b60405180910390f35b34801561025f57600080fd5b5061027a6004803603810190610275919061201d565b6107f7565b60405161028791906123b0565b60405180910390f35b34801561029c57600080fd5b506102b760048036038101906102b29190611de3565b6108a9565b6040516102c49190612694565b60405180910390f35b3480156102d957600080fd5b506102e2610961565b005b3480156102f057600080fd5b506102f96109e9565b60405161030691906123b0565b60405180910390f35b34801561031b57600080fd5b50610324610a13565b6040516103319190612432565b60405180910390f35b34801561034657600080fd5b50610361600480360381019061035c9190611f12565b610aa5565b005b34801561036f57600080fd5b5061038a60048036038101906103859190611e97565b610abb565b005b34801561039857600080fd5b506103b360048036038101906103ae919061201d565b610b1d565b6040516103c09190612432565b60405180910390f35b3480156103d557600080fd5b506103f060048036038101906103eb9190611e0c565b610c6f565b6040516103fd9190612417565b60405180910390f35b34801561041257600080fd5b5061042d60048036038101906104289190611de3565b610d03565b005b60007f80ac58cd000000000000000000000000000000000000000000000000000000007bffffffffffffffffffffffffffffffffffffffffffffffffffffffff1916827bffffffffffffffffffffffffffffffffffffffffffffffffffffffff191614806104fa57507f5b5e139f000000000000000000000000000000000000000000000000000000007bffffffffffffffffffffffffffffffffffffffffffffffffffffffff1916827bffffffffffffffffffffffffffffffffffffffffffffffffffffffff1916145b8061050a575061050982610dfb565b5b9050919050565b606060008054610520906128ea565b80601f016020809104026020016040519081016040528092919081815260200182805461054c906128ea565b80156105995780601f1061056e57610100808354040283529160200191610599565b820191906000526020600020905b81548152906001019060200180831161057c57829003601f168201915b5050505050905090565b60006105ae82610e65565b6105ed576040517f08c379a00000000000000000000000000000000000000000000000000000000081526004016105e4906125f4565b60405180910390fd5b6004600083815260200190815260200160002060009054906101000a900473ffffffffffffffffffffffffffffffffffffffff169050919050565b6000610633826107f7565b90508073ffffffffffffffffffffffffffffffffffffffff168373ffffffffffffffffffffffffffffffffffffffff1614156106a4576040517f08c379a000000000000000000000000000000000000000000000000000000000815260040161069b90612654565b60405180910390fd5b8073ffffffffffffffffffffffffffffffffffffffff166106c3610ed1565b73ffffffffffffffffffffffffffffffffffffffff1614806106f257506106f1816106ec610ed1565b610c6f565b5b610731576040517f08c379a000000000000000000000000000000000000000000000000000000000815260040161072890612534565b60405180910390fd5b61073b8383610ed9565b505050565b61075161074b610ed1565b82610f92565b610790576040517f08c379a000000000000000000000000000000000000000000000000000000000815260040161078790612674565b60405180910390fd5b61079b838383611070565b505050565b6107bb83838360405180602001604052806000815250610abb565b505050565b60006107cc60086112d7565b60006107d860086112ed565b90506107e433826112fb565b6107ee81846114d5565b80915050919050565b6000806002600084815260200190815260200160002060009054906101000a900473ffffffffffffffffffffffffffffffffffffffff169050600073ffffffffffffffffffffffffffffffffffffffff168173ffffffffffffffffffffffffffffffffffffffff1614156108a0576040517f08c379a000000000000000000000000000000000000000000000000000000000815260040161089790612574565b60405180910390fd5b80915050919050565b60008073ffffffffffffffffffffffffffffffffffffffff168273ffffffffffffffffffffffffffffffffffffffff16141561091a576040517f08c379a000000000000000000000000000000000000000000000000000000000815260040161091190612554565b60405180910390fd5b600360008373ffffffffffffffffffffffffffffffffffffffff1673ffffffffffffffffffffffffffffffffffffffff168152602001908152602001600020549050919050565b610969610ed1565b73ffffffffffffffffffffffffffffffffffffffff166109876109e9565b73ffffffffffffffffffffffffffffffffffffffff16146109dd576040517f08c379a00000000000000000000000000000000000000000000000000000000081526004016109d490612614565b60405180910390fd5b6109e76000611549565b565b6000600760009054906101000a900473ffffffffffffffffffffffffffffffffffffffff16905090565b606060018054610a22906128ea565b80601f0160208091040260200160405190810160405280929190818152602001828054610a4e906128ea565b8015610a9b5780601f10610a7057610100808354040283529160200191610a9b565b820191906000526020600020905b815481529060010190602001808311610a7e57829003601f168201915b5050505050905090565b610ab7610ab0610ed1565b838361160f565b5050565b610acc610ac6610ed1565b83610f92565b610b0b576040517f08c379a0000000000000000000000000000000000000000000000000000000008152600401610b0290612674565b60405180910390fd5b610b178484848461177c565b50505050565b6060610b2882610e65565b610b67576040517f08c379a0000000000000000000000000000000000000000000000000000000008152600401610b5e906125d4565b60405180910390fd5b6000600660008481526020019081526020016000208054610b87906128ea565b80601f0160208091040260200160405190810160405280929190818152602001828054610bb3906128ea565b8015610c005780601f10610bd557610100808354040283529160200191610c00565b820191906000526020600020905b815481529060010190602001808311610be357829003601f168201915b505050505090506000610c116117d8565b9050600081511415610c27578192505050610c6a565b600082511115610c5c578082604051602001610c4492919061238c565b60405160208183030381529060405292505050610c6a565b610c65846117ef565b925050505b919050565b6000600560008473ffffffffffffffffffffffffffffffffffffffff1673ffffffffffffffffffffffffffffffffffffffff16815260200190815260200160002060008373ffffffffffffffffffffffffffffffffffffffff1673ffffffffffffffffffffffffffffffffffffffff16815260200190815260200160002060009054906101000a900460ff16905092915050565b610d0b610ed1565b73ffffffffffffffffffffffffffffffffffffffff16610d296109e9565b73ffffffffffffffffffffffffffffffffffffffff1614610d7f576040517f08c379a0000000000000000000000000000000000000000000000000000000008152600401610d7690612614565b60405180910390fd5b600073ffffffffffffffffffffffffffffffffffffffff168173ffffffffffffffffffffffffffffffffffffffff161415610def576040517f08c379a0000000000000000000000000000000000000000000000000000000008152600401610de690612474565b60405180910390fd5b610df881611549565b50565b60007f01ffc9a7000000000000000000000000000000000000000000000000000000007bffffffffffffffffffffffffffffffffffffffffffffffffffffffff1916827bffffffffffffffffffffffffffffffffffffffffffffffffffffffff1916149050919050565b60008073ffffffffffffffffffffffffffffffffffffffff166002600084815260200190815260200160002060009054906101000a900473ffffffffffffffffffffffffffffffffffffffff1673ffffffffffffffffffffffffffffffffffffffff1614159050919050565b600033905090565b816004600083815260200190815260200160002060006101000a81548173ffffffffffffffffffffffffffffffffffffffff021916908373ffffffffffffffffffffffffffffffffffffffff160217905550808273ffffffffffffffffffffffffffffffffffffffff16610f4c836107f7565b73ffffffffffffffffffffffffffffffffffffffff167f8c5be1e5ebec7d5bd14f71427d1e84f3dd0314c0f7b2291e5b200ac8c7c3b92560405160405180910390a45050565b6000610f9d82610e65565b610fdc576040517f08c379a0000000000000000000000000000000000000000000000000000000008152600401610fd390612514565b60405180910390fd5b6000610fe7836107f7565b90508073ffffffffffffffffffffffffffffffffffffffff168473ffffffffffffffffffffffffffffffffffffffff16148061105657508373ffffffffffffffffffffffffffffffffffffffff1661103e846105a3565b73ffffffffffffffffffffffffffffffffffffffff16145b8061106757506110668185610c6f565b5b91505092915050565b8273ffffffffffffffffffffffffffffffffffffffff16611090826107f7565b73ffffffffffffffffffffffffffffffffffffffff16146110e6576040517f08c379a00000000000000000000000000000000000000000000000000000000081526004016110dd90612494565b60405180910390fd5b600073ffffffffffffffffffffffffffffffffffffffff168273ffffffffffffffffffffffffffffffffffffffff161415611156576040517f08c379a000000000000000000000000000000000000000000000000000000000815260040161114d906124d4565b60405180910390fd5b611161838383611896565b61116c600082610ed9565b6001600360008573ffffffffffffffffffffffffffffffffffffffff1673ffffffffffffffffffffffffffffffffffffffff16815260200190815260200160002060008282546111bc9190612800565b925050819055506001600360008473ffffffffffffffffffffffffffffffffffffffff1673ffffffffffffffffffffffffffffffffffffffff16815260200190815260200160002060008282546112139190612779565b92505081905550816002600083815260200190815260200160002060006101000a81548173ffffffffffffffffffffffffffffffffffffffff021916908373ffffffffffffffffffffffffffffffffffffffff160217905550808273ffffffffffffffffffffffffffffffffffffffff168473ffffffffffffffffffffffffffffffffffffffff167fddf252ad1be2c89b69c2b068fc378daa952ba7f163c4a11628f55a4df523b3ef60405160405180910390a46112d283838361189b565b505050565b6001816000016000828254019250508190555050565b600081600001549050919050565b600073ffffffffffffffffffffffffffffffffffffffff168273ffffffffffffffffffffffffffffffffffffffff16141561136b576040517f08c379a0000000000000000000000000000000000000000000000000000000008152600401611362906125b4565b60405180910390fd5b61137481610e65565b156113b4576040517f08c379a00000000000000000000000000000000000000000000000000000000081526004016113ab906124b4565b60405180910390fd5b6113c060008383611896565b6001600360008473ffffffffffffffffffffffffffffffffffffffff1673ffffffffffffffffffffffffffffffffffffffff16815260200190815260200160002060008282546114109190612779565b92505081905550816002600083815260200190815260200160002060006101000a81548173ffffffffffffffffffffffffffffffffffffffff021916908373ffffffffffffffffffffffffffffffffffffffff160217905550808273ffffffffffffffffffffffffffffffffffffffff16600073ffffffffffffffffffffffffffffffffffffffff167fddf252ad1be2c89b69c2b068fc378daa952ba7f163c4a11628f55a4df523b3ef60405160405180910390a46114d16000838361189b565b5050565b6114de82610e65565b61151d576040517f08c379a000000000000000000000000000000000000000000000000000000000815260040161151490612594565b60405180910390fd5b80600660008481526020019081526020016000209080519060200190611544929190611c07565b505050565b6000600760009054906101000a900473ffffffffffffffffffffffffffffffffffffffff16905081600760006101000a81548173ffffffffffffffffffffffffffffffffffffffff021916908373ffffffffffffffffffffffffffffffffffffffff1602179055508173ffffffffffffffffffffffffffffffffffffffff168173ffffffffffffffffffffffffffffffffffffffff167f8be0079c531659141344cd1fd0a4f28419497f9722a3daafe3b4186f6b6457e060405160405180910390a35050565b8173ffffffffffffffffffffffffffffffffffffffff168373ffffffffffffffffffffffffffffffffffffffff16141561167e576040517f08c379a0000000000000000000000000000000000000000000000000000000008152600401611675906124f4565b60405180910390fd5b80600560008573ffffffffffffffffffffffffffffffffffffffff1673ffffffffffffffffffffffffffffffffffffffff16815260200190815260200160002060008473ffffffffffffffffffffffffffffffffffffffff1673ffffffffffffffffffffffffffffffffffffffff16815260200190815260200160002060006101000a81548160ff0219169083151502179055508173ffffffffffffffffffffffffffffffffffffffff168373ffffffffffffffffffffffffffffffffffffffff167f17307eab39ab6107e8899845ad3d59bd9653f200f220920489ca2b5937696c318360405161176f9190612417565b60405180910390a3505050565b611787848484611070565b611793848484846118a0565b6117d2576040517f08c379a00000000000000000000000000000000000000000000000000000000081526004016117c990612454565b60405180910390fd5b50505050565b606060405180602001604052806000815250905090565b60606117fa82610e65565b611839576040517f08c379a000000000000000000000000000000000000000000000000000000000815260040161183090612634565b60405180910390fd5b60006118436117d8565b90506000815111611863576040518060200160405280600081525061188e565b8061186d84611a37565b60405160200161187e92919061238c565b6040516020818303038152906040525b915050919050565b505050565b505050565b60006118c18473ffffffffffffffffffffffffffffffffffffffff16611be4565b15611a2a578373ffffffffffffffffffffffffffffffffffffffff1663150b7a026118ea610ed1565b8786866040518563ffffffff1660e01b815260040161190c94939291906123cb565b602060405180830381600087803b15801561192657600080fd5b505af192505050801561195757506040513d601f19601f820116820180604052508101906119549190611fb3565b60015b6119da573d8060008114611987576040519150601f19603f3d011682016040523d82523d6000602084013e61198c565b606091505b506000815114156119d2576040517f08c379a00000000000000000000000000000000000000000000000000000000081526004016119c990612454565b60405180910390fd5b805181602001fd5b63150b7a0260e01b7bffffffffffffffffffffffffffffffffffffffffffffffffffffffff1916817bffffffffffffffffffffffffffffffffffffffffffffffffffffffff191614915050611a2f565b600190505b949350505050565b60606000821415611a7f576040518060400160405280600181526020017f30000000000000000000000000000000000000000000000000000000000000008152509050611bdf565b600082905060005b60008214611ab1578080611a9a9061294d565b915050600a82611aaa91906127cf565b9150611a87565b60008167ffffffffffffffff811115611af3577f4e487b7100000000000000000000000000000000000000000000000000000000600052604160045260246000fd5b6040519080825280601f01601f191660200182016040528015611b255781602001600182028036833780820191505090505b5090505b60008514611bd857600182611b3e9190612800565b9150600a85611b4d9190612996565b6030611b599190612779565b60f81b818381518110611b95577f4e487b7100000000000000000000000000000000000000000000000000000000600052603260045260246000fd5b60200101907effffffffffffffffffffffffffffffffffffffffffffffffffffffffffffff1916908160001a905350600a85611bd191906127cf565b9450611b29565b8093505050505b919050565b6000808273ffffffffffffffffffffffffffffffffffffffff163b119050919050565b828054611c13906128ea565b90600052602060002090601f016020900481019282611c355760008555611c7c565b82601f10611c4e57805160ff1916838001178555611c7c565b82800160010185558215611c7c579182015b82811115611c7b578251825591602001919060010190611c60565b5b509050611c899190611c8d565b5090565b5b80821115611ca6576000816000905550600101611c8e565b5090565b6000611cbd611cb8846126d4565b6126af565b905082815260208101848484011115611cd557600080fd5b611ce08482856128a8565b509392505050565b6000611cfb611cf684612705565b6126af565b905082815260208101848484011115611d1357600080fd5b611d1e8482856128a8565b509392505050565b600081359050611d3581612f8a565b92915050565b600081359050611d4a81612fa1565b92915050565b600081359050611d5f81612fb8565b92915050565b600081519050611d7481612fb8565b92915050565b600082601f830112611d8b57600080fd5b8135611d9b848260208601611caa565b91505092915050565b600082601f830112611db557600080fd5b8135611dc5848260208601611ce8565b91505092915050565b600081359050611ddd81612fcf565b92915050565b600060208284031215611df557600080fd5b6000611e0384828501611d26565b91505092915050565b60008060408385031215611e1f57600080fd5b6000611e2d85828601611d26565b9250506020611e3e85828601611d26565b9150509250929050565b600080600060608486031215611e5d57600080fd5b6000611e6b86828701611d26565b9350506020611e7c86828701611d26565b9250506040611e8d86828701611dce565b9150509250925092565b60008060008060808587031215611ead57600080fd5b6000611ebb87828801611d26565b9450506020611ecc87828801611d26565b9350506040611edd87828801611dce565b925050606085013567ffffffffffffffff811115611efa57600080fd5b611f0687828801611d7a565b91505092959194509250565b60008060408385031215611f2557600080fd5b6000611f3385828601611d26565b9250506020611f4485828601611d3b565b9150509250929050565b60008060408385031215611f6157600080fd5b6000611f6f85828601611d26565b9250506020611f8085828601611dce565b9150509250929050565b600060208284031215611f9c57600080fd5b6000611faa84828501611d50565b91505092915050565b600060208284031215611fc557600080fd5b6000611fd384828501611d65565b91505092915050565b600060208284031215611fee57600080fd5b600082013567ffffffffffffffff81111561200857600080fd5b61201484828501611da4565b91505092915050565b60006020828403121561202f57600080fd5b600061203d84828501611dce565b91505092915050565b61204f81612834565b82525050565b61205e81612846565b82525050565b600061206f82612736565b612079818561274c565b93506120898185602086016128b7565b61209281612a83565b840191505092915050565b60006120a882612741565b6120b2818561275d565b93506120c28185602086016128b7565b6120cb81612a83565b840191505092915050565b60006120e182612741565b6120eb818561276e565b93506120fb8185602086016128b7565b80840191505092915050565b600061211460328361275d565b915061211f82612a94565b604082019050919050565b600061213760268361275d565b915061214282612ae3565b604082019050919050565b600061215a60258361275d565b915061216582612b32565b604082019050919050565b600061217d601c8361275d565b915061218882612b81565b602082019050919050565b60006121a060248361275d565b91506121ab82612baa565b604082019050919050565b60006121c360198361275d565b91506121ce82612bf9565b602082019050919050565b60006121e6602c8361275d565b91506121f182612c22565b604082019050919050565b600061220960388361275d565b915061221482612c71565b604082019050919050565b600061222c602a8361275d565b915061223782612cc0565b604082019050919050565b600061224f60298361275d565b915061225a82612d0f565b604082019050919050565b6000612272602e8361275d565b915061227d82612d5e565b604082019050919050565b600061229560208361275d565b91506122a082612dad565b602082019050919050565b60006122b860318361275d565b91506122c382612dd6565b604082019050919050565b60006122db602c8361275d565b91506122e682612e25565b604082019050919050565b60006122fe60208361275d565b915061230982612e74565b602082019050919050565b6000612321602f8361275d565b915061232c82612e9d565b604082019050919050565b600061234460218361275d565b915061234f82612eec565b604082019050919050565b600061236760318361275d565b915061237282612f3b565b604082019050919050565b6123868161289e565b82525050565b600061239882856120d6565b91506123a482846120d6565b91508190509392505050565b60006020820190506123c56000830184612046565b92915050565b60006080820190506123e06000830187612046565b6123ed6020830186612046565b6123fa604083018561237d565b818103606083015261240c8184612064565b905095945050505050565b600060208201905061242c6000830184612055565b92915050565b6000602082019050818103600083015261244c818461209d565b905092915050565b6000602082019050818103600083015261246d81612107565b9050919050565b6000602082019050818103600083015261248d8161212a565b9050919050565b600060208201905081810360008301526124ad8161214d565b9050919050565b600060208201905081810360008301526124cd81612170565b9050919050565b600060208201905081810360008301526124ed81612193565b9050919050565b6000602082019050818103600083015261250d816121b6565b9050919050565b6000602082019050818103600083015261252d816121d9565b9050919050565b6000602082019050818103600083015261254d816121fc565b9050919050565b6000602082019050818103600083015261256d8161221f565b9050919050565b6000602082019050818103600083015261258d81612242565b9050919050565b600060208201905081810360008301526125ad81612265565b9050919050565b600060208201905081810360008301526125cd81612288565b9050919050565b600060208201905081810360008301526125ed816122ab565b9050919050565b6000602082019050818103600083015261260d816122ce565b9050919050565b6000602082019050818103600083015261262d816122f1565b9050919050565b6000602082019050818103600083015261264d81612314565b9050919050565b6000602082019050818103600083015261266d81612337565b9050919050565b6000602082019050818103600083015261268d8161235a565b9050919050565b60006020820190506126a9600083018461237d565b92915050565b60006126b96126ca565b90506126c5828261291c565b919050565b6000604051905090565b600067ffffffffffffffff8211156126ef576126ee612a54565b5b6126f882612a83565b9050602081019050919050565b600067ffffffffffffffff8211156127205761271f612a54565b5b61272982612a83565b9050602081019050919050565b600081519050919050565b600081519050919050565b600082825260208201905092915050565b600082825260208201905092915050565b600081905092915050565b60006127848261289e565b915061278f8361289e565b9250827fffffffffffffffffffffffffffffffffffffffffffffffffffffffffffffffff038211156127c4576127c36129c7565b5b828201905092915050565b60006127da8261289e565b91506127e58361289e565b9250826127f5576127f46129f6565b5b828204905092915050565b600061280b8261289e565b91506128168361289e565b925082821015612829576128286129c7565b5b828203905092915050565b600061283f8261287e565b9050919050565b60008115159050919050565b60007fffffffff0000000000000000000000000000000000000000000000000000000082169050919050565b600073ffffffffffffffffffffffffffffffffffffffff82169050919050565b6000819050919050565b82818337600083830152505050565b60005b838110156128d55780820151818401526020810190506128ba565b838111156128e4576000848401525b50505050565b6000600282049050600182168061290257607f821691505b6020821081141561291657612915612a25565b5b50919050565b61292582612a83565b810181811067ffffffffffffffff8211171561294457612943612a54565b5b80604052505050565b60006129588261289e565b91507fffffffffffffffffffffffffffffffffffffffffffffffffffffffffffffffff82141561298b5761298a6129c7565b5b600182019050919050565b60006129a18261289e565b91506129ac8361289e565b9250826129bc576129bb6129f6565b5b828206905092915050565b7f4e487b7100000000000000000000000000000000000000000000000000000000600052601160045260246000fd5b7f4e487b7100000000000000000000000000000000000000000000000000000000600052601260045260246000fd5b7f4e487b7100000000000000000000000000000000000000000000000000000000600052602260045260246000fd5b7f4e487b7100000000000000000000000000000000000000000000000000000000600052604160045260246000fd5b6000601f19601f8301169050919050565b7f4552433732313a207472616e7366657220746f206e6f6e20455243373231526560008201527f63656976657220696d706c656d656e7465720000000000000000000000000000602082015250565b7f4f776e61626c653a206e6577206f776e657220697320746865207a65726f206160008201527f6464726573730000000000000000000000000000000000000000000000000000602082015250565b7f4552433732313a207472616e736665722066726f6d20696e636f72726563742060008201527f6f776e6572000000000000000000000000000000000000000000000000000000602082015250565b7f4552433732313a20746f6b656e20616c7265616479206d696e74656400000000600082015250565b7f4552433732313a207472616e7366657220746f20746865207a65726f2061646460008201527f7265737300000000000000000000000000000000000000000000000000000000602082015250565b7f4552433732313a20617070726f766520746f2063616c6c657200000000000000600082015250565b7f4552433732313a206f70657261746f7220717565727920666f72206e6f6e657860008201527f697374656e7420746f6b656e0000000000000000000000000000000000000000602082015250565b7f4552433732313a20617070726f76652063616c6c6572206973206e6f74206f7760008201527f6e6572206e6f7220617070726f76656420666f7220616c6c0000000000000000602082015250565b7f4552433732313a2062616c616e636520717565727920666f7220746865207a6560008201527f726f206164647265737300000000000000000000000000000000000000000000602082015250565b7f4552433732313a206f776e657220717565727920666f72206e6f6e657869737460008201527f656e7420746f6b656e0000000000000000000000000000000000000000000000602082015250565b7f45524337323155524953746f726167653a2055524920736574206f66206e6f6e60008201527f6578697374656e7420746f6b656e000000000000000000000000000000000000602082015250565b7f4552433732313a206d696e7420746f20746865207a65726f2061646472657373600082015250565b7f45524337323155524953746f726167653a2055524920717565727920666f722060008201527f6e6f6e6578697374656e7420746f6b656e000000000000000000000000000000602082015250565b7f4552433732313a20617070726f76656420717565727920666f72206e6f6e657860008201527f697374656e7420746f6b656e0000000000000000000000000000000000000000602082015250565b7f4f776e61626c653a2063616c6c6572206973206e6f7420746865206f776e6572600082015250565b7f4552433732314d657461646174613a2055524920717565727920666f72206e6f60008201527f6e6578697374656e7420746f6b656e0000000000000000000000000000000000602082015250565b7f4552433732313a20617070726f76616c20746f2063757272656e74206f776e6560008201527f7200000000000000000000000000000000000000000000000000000000000000602082015250565b7f4552433732313a207472616e736665722063616c6c6572206973206e6f74206f60008201527f776e6572206e6f7220617070726f766564000000000000000000000000000000602082015250565b612f9381612834565b8114612f9e57600080fd5b50565b612faa81612846565b8114612fb557600080fd5b50565b612fc181612852565b8114612fcc57600080fd5b50565b612fd88161289e565b8114612fe357600080fd5b5056fea2646970667358221220cd896b1a10200842537f5a061e992dbebd6e924ed9d41ccb2707ebc8f23fdb2864736f6c63430008040033",
  "linkReferences": {},
  "deployedLinkReferences": {}
}