{
  "_format": "hh-sol-artifact-1",
  "contractName": "MintQuote",
  "sourceName": "contracts/MintQuote.sol",
  "abi": [
    {
      "inputs": [],
      "stateMutability": "nonpayable",
      "type": "constructor"
    },
    {
      "anonymous": false,
      "inputs": [
        {
          "indexed": true,
          "internalType": "address",
          "name": "owner",
          "type": "address"
        },
        {
          "indexed": true,
          "internalType": "address",
          "name": "approved",
          "type": "address"
        },
        {
          "indexed": true,
          "internalType": "uint256",
          "name": "tokenId",
          "type": "uint256"
        }
      ],
      "name": "Approval",
      "type": "event"
    },
    {
      "anonymous": false,
      "inputs": [
        {
          "indexed": true,
          "internalType": "address",
          "name": "owner",
          "type": "address"
        },
        {
          "indexed": true,
          "internalType": "address",
          "name": "operator",
          "type": "address"
        },
        {
          "indexed": false,
          "internalType": "bool",
          "name": "approved",
          "type": "bool"
        }
      ],
      "name": "ApprovalForAll",
      "type": "event"
    },
    {
      "anonymous": false,
      "inputs": [
        {
          "indexed": true,
          "internalType": "address",
          "name": "previousOwner",
          "type": "address"
        },
        {
          "indexed": true,
          "internalType": "address",
          "name": "newOwner",
          "type": "address"
        }
      ],
      "name": "OwnershipTransferred",
      "type": "event"
    },
    {
      "anonymous": false,
      "inputs": [
        {
          "indexed": true,
          "internalType": "address",
          "name": "from",
          "type": "address"
        },
        {
          "indexed": true,
          "internalType": "address",
          "name": "to",
          "type": "address"
        },
        {
          "indexed": true,
          "internalType": "uint256",
          "name": "tokenId",
          "type": "uint256"
        }
      ],
      "name": "Transfer",
      "type": "event"
    },
    {
      "inputs": [
        {
          "internalType": "address",
          "name": "to",
          "type": "address"
        },
        {
          "internalType": "uint256",
          "name": "tokenId",
          "type": "uint256"
        }
      ],
      "name": "approve",
      "outputs": [],
      "stateMutability": "nonpayable",
      "type": "function"
    },
    {
      "inputs": [
        {
          "internalType": "address",
          "name": "owner",
          "type": "address"
        }
      ],
      "name": "balanceOf",
      "outputs": [
        {
          "internalType": "uint256",
          "name": "",
          "type": "uint256"
        }
      ],
      "stateMutability": "view",
      "type": "function"
    },
    {
      "inputs": [
        {
          "internalType": "string",
          "name": "tokenURI",
          "type": "string"
        }
      ],
      "name": "createToken",
      "outputs": [
        {
          "internalType": "uint256",
          "name": "",
          "type": "uint256"
        }
      ],
      "stateMutability": "payable",
      "type": "function"
    },
    {
      "inputs": [
        {
          "internalType": "uint256",
          "name": "tokenId",
          "type": "uint256"
        }
      ],
      "name": "getApproved",
      "outputs": [
        {
          "internalType": "address",
          "name": "",
          "type": "address"
        }
      ],
      "stateMutability": "view",
      "type": "function"
    },
    {
      "inputs": [],
      "name": "getBalance",
      "outputs": [
        {
          "internalType": "uint256",
          "name": "",
          "type": "uint256"
        }
      ],
      "stateMutability": "view",
      "type": "function"
    },
    {
      "inputs": [],
      "name": "getMintingFee",
      "outputs": [
        {
          "internalType": "uint256",
          "name": "",
          "type": "uint256"
        }
      ],
      "stateMutability": "view",
      "type": "function"
    },
    {
      "inputs": [
        {
          "internalType": "address",
          "name": "owner",
          "type": "address"
        },
        {
          "internalType": "address",
          "name": "operator",
          "type": "address"
        }
      ],
      "name": "isApprovedForAll",
      "outputs": [
        {
          "internalType": "bool",
          "name": "",
          "type": "bool"
        }
      ],
      "stateMutability": "view",
      "type": "function"
    },
    {
      "inputs": [],
      "name": "name",
      "outputs": [
        {
          "internalType": "string",
          "name": "",
          "type": "string"
        }
      ],
      "stateMutability": "view",
      "type": "function"
    },
    {
      "inputs": [],
      "name": "owner",
      "outputs": [
        {
          "internalType": "address",
          "name": "",
          "type": "address"
        }
      ],
      "stateMutability": "view",
      "type": "function"
    },
    {
      "inputs": [
        {
          "internalType": "uint256",
          "name": "tokenId",
          "type": "uint256"
        }
      ],
      "name": "ownerOf",
      "outputs": [
        {
          "internalType": "address",
          "name": "",
          "type": "address"
        }
      ],
      "stateMutability": "view",
      "type": "function"
    },
    {
      "inputs": [],
      "name": "renounceOwnership",
      "outputs": [],
      "stateMutability": "nonpayable",
      "type": "function"
    },
    {
      "inputs": [
        {
          "internalType": "address",
          "name": "from",
          "type": "address"
        },
        {
          "internalType": "address",
          "name": "to",
          "type": "address"
        },
        {
          "internalType": "uint256",
          "name": "tokenId",
          "type": "uint256"
        }
      ],
      "name": "safeTransferFrom",
      "outputs": [],
      "stateMutability": "nonpayable",
      "type": "function"
    },
    {
      "inputs": [
        {
          "internalType": "address",
          "name": "from",
          "type": "address"
        },
        {
          "internalType": "address",
          "name": "to",
          "type": "address"
        },
        {
          "internalType": "uint256",
          "name": "tokenId",
          "type": "uint256"
        },
        {
          "internalType": "bytes",
          "name": "_data",
          "type": "bytes"
        }
      ],
      "name": "safeTransferFrom",
      "outputs": [],
      "stateMutability": "nonpayable",
      "type": "function"
    },
    {
      "inputs": [
        {
          "internalType": "address",
          "name": "operator",
          "type": "address"
        },
        {
          "internalType": "bool",
          "name": "approved",
          "type": "bool"
        }
      ],
      "name": "setApprovalForAll",
      "outputs": [],
      "stateMutability": "nonpayable",
      "type": "function"
    },
    {
      "inputs": [
        {
          "internalType": "uint256",
          "name": "fee",
          "type": "uint256"
        }
      ],
      "name": "setMintingFee",
      "outputs": [],
      "stateMutability": "nonpayable",
      "type": "function"
    },
    {
      "inputs": [
        {
          "internalType": "bytes4",
          "name": "interfaceId",
          "type": "bytes4"
        }
      ],
      "name": "supportsInterface",
      "outputs": [
        {
          "internalType": "bool",
          "name": "",
          "type": "bool"
        }
      ],
      "stateMutability": "view",
      "type": "function"
    },
    {
      "inputs": [],
      "name": "symbol",
      "outputs": [
        {
          "internalType": "string",
          "name": "",
          "type": "string"
        }
      ],
      "stateMutability": "view",
      "type": "function"
    },
    {
      "inputs": [
        {
          "internalType": "uint256",
          "name": "tokenId",
          "type": "uint256"
        }
      ],
      "name": "tokenURI",
      "outputs": [
        {
          "internalType": "string",
          "name": "",
          "type": "string"
        }
      ],
      "stateMutability": "view",
      "type": "function"
    },
    {
      "inputs": [
        {
          "internalType": "address",
          "name": "from",
          "type": "address"
        },
        {
          "internalType": "address",
          "name": "to",
          "type": "address"
        },
        {
          "internalType": "uint256",
          "name": "tokenId",
          "type": "uint256"
        }
      ],
      "name": "transferFrom",
      "outputs": [],
      "stateMutability": "nonpayable",
      "type": "function"
    },
    {
      "inputs": [
        {
          "internalType": "address",
          "name": "newOwner",
          "type": "address"
        }
      ],
      "name": "transferOwnership",
      "outputs": [],
      "stateMutability": "nonpayable",
      "type": "function"
    },
    {
      "inputs": [],
      "name": "withdrawMoney",
      "outputs": [],
      "stateMutability": "nonpayable",
      "type": "function"
    }
  ],
  "bytecode": "0x608060405266071afd498d00006009553480156200001c57600080fd5b506040518060400160405280600a81526020017f51756f746174696f6e73000000000000000000000000000000000000000000008152506040518060400160405280600581526020017f51554f54450000000000000000000000000000000000000000000000000000008152508160009080519060200190620000a1929190620001b1565b508060019080519060200190620000ba929190620001b1565b505050620000dd620000d1620000e360201b60201c565b620000eb60201b60201c565b620002c6565b600033905090565b6000600760009054906101000a900473ffffffffffffffffffffffffffffffffffffffff16905081600760006101000a81548173ffffffffffffffffffffffffffffffffffffffff021916908373ffffffffffffffffffffffffffffffffffffffff1602179055508173ffffffffffffffffffffffffffffffffffffffff168173ffffffffffffffffffffffffffffffffffffffff167f8be0079c531659141344cd1fd0a4f28419497f9722a3daafe3b4186f6b6457e060405160405180910390a35050565b828054620001bf9062000261565b90600052602060002090601f016020900481019282620001e357600085556200022f565b82601f10620001fe57805160ff19168380011785556200022f565b828001600101855582156200022f579182015b828111156200022e57825182559160200191906001019062000211565b5b5090506200023e919062000242565b5090565b5b808211156200025d57600081600090555060010162000243565b5090565b600060028204905060018216806200027a57607f821691505b6020821081141562000291576200029062000297565b5b50919050565b7f4e487b7100000000000000000000000000000000000000000000000000000000600052602260045260246000fd5b61339a80620002d66000396000f3fe60806040526004361061012a5760003560e01c806370a08231116100ab578063ac4460021161006f578063ac446002146103e3578063b59d88a9146103fa578063b88d4fde14610425578063c87b56dd1461044e578063e985e9c51461048b578063f2fde38b146104c85761012a565b806370a0823114610310578063715018a61461034d5780638da5cb5b1461036457806395d89b411461038f578063a22cb465146103ba5761012a565b8063238a4709116100f2578063238a47091461022857806323b872dd1461025157806342842e0e1461027a57806345576f94146102a35780636352211e146102d35761012a565b806301ffc9a71461012f57806306fdde031461016c578063081812fc14610197578063095ea7b3146101d457806312065fe0146101fd575b600080fd5b34801561013b57600080fd5b5061015660048036038101906101519190612276565b6104f1565b6040516101639190612726565b60405180910390f35b34801561017857600080fd5b506101816105d3565b60405161018e9190612741565b60405180910390f35b3480156101a357600080fd5b506101be60048036038101906101b99190612309565b610665565b6040516101cb91906126bf565b60405180910390f35b3480156101e057600080fd5b506101fb60048036038101906101f6919061223a565b6106ea565b005b34801561020957600080fd5b50610212610802565b60405161021f91906129c3565b60405180910390f35b34801561023457600080fd5b5061024f600480360381019061024a9190612309565b610886565b005b34801561025d57600080fd5b5061027860048036038101906102739190612134565b61090c565b005b34801561028657600080fd5b506102a1600480360381019061029c9190612134565b61096c565b005b6102bd60048036038101906102b891906122c8565b61098c565b6040516102ca91906129c3565b60405180910390f35b3480156102df57600080fd5b506102fa60048036038101906102f59190612309565b610a07565b60405161030791906126bf565b60405180910390f35b34801561031c57600080fd5b50610337600480360381019061033291906120cf565b610ab9565b60405161034491906129c3565b60405180910390f35b34801561035957600080fd5b50610362610b71565b005b34801561037057600080fd5b50610379610bf9565b60405161038691906126bf565b60405180910390f35b34801561039b57600080fd5b506103a4610c23565b6040516103b19190612741565b60405180910390f35b3480156103c657600080fd5b506103e160048036038101906103dc91906121fe565b610cb5565b005b3480156103ef57600080fd5b506103f8610ccb565b005b34801561040657600080fd5b5061040f610d9d565b60405161041c91906129c3565b60405180910390f35b34801561043157600080fd5b5061044c60048036038101906104479190612183565b610da7565b005b34801561045a57600080fd5b5061047560048036038101906104709190612309565b610e09565b6040516104829190612741565b60405180910390f35b34801561049757600080fd5b506104b260048036038101906104ad91906120f8565b610f5b565b6040516104bf9190612726565b60405180910390f35b3480156104d457600080fd5b506104ef60048036038101906104ea91906120cf565b610fef565b005b60007f80ac58cd000000000000000000000000000000000000000000000000000000007bffffffffffffffffffffffffffffffffffffffffffffffffffffffff1916827bffffffffffffffffffffffffffffffffffffffffffffffffffffffff191614806105bc57507f5b5e139f000000000000000000000000000000000000000000000000000000007bffffffffffffffffffffffffffffffffffffffffffffffffffffffff1916827bffffffffffffffffffffffffffffffffffffffffffffffffffffffff1916145b806105cc57506105cb826110e7565b5b9050919050565b6060600080546105e290612c19565b80601f016020809104026020016040519081016040528092919081815260200182805461060e90612c19565b801561065b5780601f106106305761010080835404028352916020019161065b565b820191906000526020600020905b81548152906001019060200180831161063e57829003601f168201915b5050505050905090565b600061067082611151565b6106af576040517f08c379a00000000000000000000000000000000000000000000000000000000081526004016106a690612903565b60405180910390fd5b6004600083815260200190815260200160002060009054906101000a900473ffffffffffffffffffffffffffffffffffffffff169050919050565b60006106f582610a07565b90508073ffffffffffffffffffffffffffffffffffffffff168373ffffffffffffffffffffffffffffffffffffffff161415610766576040517f08c379a000000000000000000000000000000000000000000000000000000000815260040161075d90612963565b60405180910390fd5b8073ffffffffffffffffffffffffffffffffffffffff166107856111bd565b73ffffffffffffffffffffffffffffffffffffffff1614806107b457506107b3816107ae6111bd565b610f5b565b5b6107f3576040517f08c379a00000000000000000000000000000000000000000000000000000000081526004016107ea90612843565b60405180910390fd5b6107fd83836111c5565b505050565b600061080c6111bd565b73ffffffffffffffffffffffffffffffffffffffff1661082a610bf9565b73ffffffffffffffffffffffffffffffffffffffff1614610880576040517f08c379a000000000000000000000000000000000000000000000000000000000815260040161087790612923565b60405180910390fd5b47905090565b61088e6111bd565b73ffffffffffffffffffffffffffffffffffffffff166108ac610bf9565b73ffffffffffffffffffffffffffffffffffffffff1614610902576040517f08c379a00000000000000000000000000000000000000000000000000000000081526004016108f990612923565b60405180910390fd5b8060098190555050565b61091d6109176111bd565b8261127e565b61095c576040517f08c379a000000000000000000000000000000000000000000000000000000000815260040161095390612983565b60405180910390fd5b61096783838361135c565b505050565b61098783838360405180602001604052806000815250610da7565b505050565b600060095434146109d2576040517f08c379a00000000000000000000000000000000000000000000000000000000081526004016109c9906129a3565b60405180910390fd5b6109dc60086115c3565b60006109e860086115d9565b90506109f433826115e7565b6109fe81846117c1565b80915050919050565b6000806002600084815260200190815260200160002060009054906101000a900473ffffffffffffffffffffffffffffffffffffffff169050600073ffffffffffffffffffffffffffffffffffffffff168173ffffffffffffffffffffffffffffffffffffffff161415610ab0576040517f08c379a0000000000000000000000000000000000000000000000000000000008152600401610aa790612883565b60405180910390fd5b80915050919050565b60008073ffffffffffffffffffffffffffffffffffffffff168273ffffffffffffffffffffffffffffffffffffffff161415610b2a576040517f08c379a0000000000000000000000000000000000000000000000000000000008152600401610b2190612863565b60405180910390fd5b600360008373ffffffffffffffffffffffffffffffffffffffff1673ffffffffffffffffffffffffffffffffffffffff168152602001908152602001600020549050919050565b610b796111bd565b73ffffffffffffffffffffffffffffffffffffffff16610b97610bf9565b73ffffffffffffffffffffffffffffffffffffffff1614610bed576040517f08c379a0000000000000000000000000000000000000000000000000000000008152600401610be490612923565b60405180910390fd5b610bf76000611835565b565b6000600760009054906101000a900473ffffffffffffffffffffffffffffffffffffffff16905090565b606060018054610c3290612c19565b80601f0160208091040260200160405190810160405280929190818152602001828054610c5e90612c19565b8015610cab5780601f10610c8057610100808354040283529160200191610cab565b820191906000526020600020905b815481529060010190602001808311610c8e57829003601f168201915b5050505050905090565b610cc7610cc06111bd565b83836118fb565b5050565b610cd36111bd565b73ffffffffffffffffffffffffffffffffffffffff16610cf1610bf9565b73ffffffffffffffffffffffffffffffffffffffff1614610d47576040517f08c379a0000000000000000000000000000000000000000000000000000000008152600401610d3e90612923565b60405180910390fd5b60003390508073ffffffffffffffffffffffffffffffffffffffff166108fc610d6e610802565b9081150290604051600060405180830381858888f19350505050158015610d99573d6000803e3d6000fd5b5050565b6000600954905090565b610db8610db26111bd565b8361127e565b610df7576040517f08c379a0000000000000000000000000000000000000000000000000000000008152600401610dee90612983565b60405180910390fd5b610e0384848484611a68565b50505050565b6060610e1482611151565b610e53576040517f08c379a0000000000000000000000000000000000000000000000000000000008152600401610e4a906128e3565b60405180910390fd5b6000600660008481526020019081526020016000208054610e7390612c19565b80601f0160208091040260200160405190810160405280929190818152602001828054610e9f90612c19565b8015610eec5780601f10610ec157610100808354040283529160200191610eec565b820191906000526020600020905b815481529060010190602001808311610ecf57829003601f168201915b505050505090506000610efd611ac4565b9050600081511415610f13578192505050610f56565b600082511115610f48578082604051602001610f3092919061269b565b60405160208183030381529060405292505050610f56565b610f5184611adb565b925050505b919050565b6000600560008473ffffffffffffffffffffffffffffffffffffffff1673ffffffffffffffffffffffffffffffffffffffff16815260200190815260200160002060008373ffffffffffffffffffffffffffffffffffffffff1673ffffffffffffffffffffffffffffffffffffffff16815260200190815260200160002060009054906101000a900460ff16905092915050565b610ff76111bd565b73ffffffffffffffffffffffffffffffffffffffff16611015610bf9565b73ffffffffffffffffffffffffffffffffffffffff161461106b576040517f08c379a000000000000000000000000000000000000000000000000000000000815260040161106290612923565b60405180910390fd5b600073ffffffffffffffffffffffffffffffffffffffff168173ffffffffffffffffffffffffffffffffffffffff1614156110db576040517f08c379a00000000000000000000000000000000000000000000000000000000081526004016110d290612783565b60405180910390fd5b6110e481611835565b50565b60007f01ffc9a7000000000000000000000000000000000000000000000000000000007bffffffffffffffffffffffffffffffffffffffffffffffffffffffff1916827bffffffffffffffffffffffffffffffffffffffffffffffffffffffff1916149050919050565b60008073ffffffffffffffffffffffffffffffffffffffff166002600084815260200190815260200160002060009054906101000a900473ffffffffffffffffffffffffffffffffffffffff1673ffffffffffffffffffffffffffffffffffffffff1614159050919050565b600033905090565b816004600083815260200190815260200160002060006101000a81548173ffffffffffffffffffffffffffffffffffffffff021916908373ffffffffffffffffffffffffffffffffffffffff160217905550808273ffffffffffffffffffffffffffffffffffffffff1661123883610a07565b73ffffffffffffffffffffffffffffffffffffffff167f8c5be1e5ebec7d5bd14f71427d1e84f3dd0314c0f7b2291e5b200ac8c7c3b92560405160405180910390a45050565b600061128982611151565b6112c8576040517f08c379a00000000000000000000000000000000000000000000000000000000081526004016112bf90612823565b60405180910390fd5b60006112d383610a07565b90508073ffffffffffffffffffffffffffffffffffffffff168473ffffffffffffffffffffffffffffffffffffffff16148061134257508373ffffffffffffffffffffffffffffffffffffffff1661132a84610665565b73ffffffffffffffffffffffffffffffffffffffff16145b8061135357506113528185610f5b565b5b91505092915050565b8273ffffffffffffffffffffffffffffffffffffffff1661137c82610a07565b73ffffffffffffffffffffffffffffffffffffffff16146113d2576040517f08c379a00000000000000000000000000000000000000000000000000000000081526004016113c9906127a3565b60405180910390fd5b600073ffffffffffffffffffffffffffffffffffffffff168273ffffffffffffffffffffffffffffffffffffffff161415611442576040517f08c379a0000000000000000000000000000000000000000000000000000000008152600401611439906127e3565b60405180910390fd5b61144d838383611b82565b6114586000826111c5565b6001600360008573ffffffffffffffffffffffffffffffffffffffff1673ffffffffffffffffffffffffffffffffffffffff16815260200190815260200160002060008282546114a89190612b2f565b925050819055506001600360008473ffffffffffffffffffffffffffffffffffffffff1673ffffffffffffffffffffffffffffffffffffffff16815260200190815260200160002060008282546114ff9190612aa8565b92505081905550816002600083815260200190815260200160002060006101000a81548173ffffffffffffffffffffffffffffffffffffffff021916908373ffffffffffffffffffffffffffffffffffffffff160217905550808273ffffffffffffffffffffffffffffffffffffffff168473ffffffffffffffffffffffffffffffffffffffff167fddf252ad1be2c89b69c2b068fc378daa952ba7f163c4a11628f55a4df523b3ef60405160405180910390a46115be838383611b87565b505050565b6001816000016000828254019250508190555050565b600081600001549050919050565b600073ffffffffffffffffffffffffffffffffffffffff168273ffffffffffffffffffffffffffffffffffffffff161415611657576040517f08c379a000000000000000000000000000000000000000000000000000000000815260040161164e906128c3565b60405180910390fd5b61166081611151565b156116a0576040517f08c379a0000000000000000000000000000000000000000000000000000000008152600401611697906127c3565b60405180910390fd5b6116ac60008383611b82565b6001600360008473ffffffffffffffffffffffffffffffffffffffff1673ffffffffffffffffffffffffffffffffffffffff16815260200190815260200160002060008282546116fc9190612aa8565b92505081905550816002600083815260200190815260200160002060006101000a81548173ffffffffffffffffffffffffffffffffffffffff021916908373ffffffffffffffffffffffffffffffffffffffff160217905550808273ffffffffffffffffffffffffffffffffffffffff16600073ffffffffffffffffffffffffffffffffffffffff167fddf252ad1be2c89b69c2b068fc378daa952ba7f163c4a11628f55a4df523b3ef60405160405180910390a46117bd60008383611b87565b5050565b6117ca82611151565b611809576040517f08c379a0000000000000000000000000000000000000000000000000000000008152600401611800906128a3565b60405180910390fd5b80600660008481526020019081526020016000209080519060200190611830929190611ef3565b505050565b6000600760009054906101000a900473ffffffffffffffffffffffffffffffffffffffff16905081600760006101000a81548173ffffffffffffffffffffffffffffffffffffffff021916908373ffffffffffffffffffffffffffffffffffffffff1602179055508173ffffffffffffffffffffffffffffffffffffffff168173ffffffffffffffffffffffffffffffffffffffff167f8be0079c531659141344cd1fd0a4f28419497f9722a3daafe3b4186f6b6457e060405160405180910390a35050565b8173ffffffffffffffffffffffffffffffffffffffff168373ffffffffffffffffffffffffffffffffffffffff16141561196a576040517f08c379a000000000000000000000000000000000000000000000000000000000815260040161196190612803565b60405180910390fd5b80600560008573ffffffffffffffffffffffffffffffffffffffff1673ffffffffffffffffffffffffffffffffffffffff16815260200190815260200160002060008473ffffffffffffffffffffffffffffffffffffffff1673ffffffffffffffffffffffffffffffffffffffff16815260200190815260200160002060006101000a81548160ff0219169083151502179055508173ffffffffffffffffffffffffffffffffffffffff168373ffffffffffffffffffffffffffffffffffffffff167f17307eab39ab6107e8899845ad3d59bd9653f200f220920489ca2b5937696c3183604051611a5b9190612726565b60405180910390a3505050565b611a7384848461135c565b611a7f84848484611b8c565b611abe576040517f08c379a0000000000000000000000000000000000000000000000000000000008152600401611ab590612763565b60405180910390fd5b50505050565b606060405180602001604052806000815250905090565b6060611ae682611151565b611b25576040517f08c379a0000000000000000000000000000000000000000000000000000000008152600401611b1c90612943565b60405180910390fd5b6000611b2f611ac4565b90506000815111611b4f5760405180602001604052806000815250611b7a565b80611b5984611d23565b604051602001611b6a92919061269b565b6040516020818303038152906040525b915050919050565b505050565b505050565b6000611bad8473ffffffffffffffffffffffffffffffffffffffff16611ed0565b15611d16578373ffffffffffffffffffffffffffffffffffffffff1663150b7a02611bd66111bd565b8786866040518563ffffffff1660e01b8152600401611bf894939291906126da565b602060405180830381600087803b158015611c1257600080fd5b505af1925050508015611c4357506040513d601f19601f82011682018060405250810190611c40919061229f565b60015b611cc6573d8060008114611c73576040519150601f19603f3d011682016040523d82523d6000602084013e611c78565b606091505b50600081511415611cbe576040517f08c379a0000000000000000000000000000000000000000000000000000000008152600401611cb590612763565b60405180910390fd5b805181602001fd5b63150b7a0260e01b7bffffffffffffffffffffffffffffffffffffffffffffffffffffffff1916817bffffffffffffffffffffffffffffffffffffffffffffffffffffffff191614915050611d1b565b600190505b949350505050565b60606000821415611d6b576040518060400160405280600181526020017f30000000000000000000000000000000000000000000000000000000000000008152509050611ecb565b600082905060005b60008214611d9d578080611d8690612c7c565b915050600a82611d969190612afe565b9150611d73565b60008167ffffffffffffffff811115611ddf577f4e487b7100000000000000000000000000000000000000000000000000000000600052604160045260246000fd5b6040519080825280601f01601f191660200182016040528015611e115781602001600182028036833780820191505090505b5090505b60008514611ec457600182611e2a9190612b2f565b9150600a85611e399190612cc5565b6030611e459190612aa8565b60f81b818381518110611e81577f4e487b7100000000000000000000000000000000000000000000000000000000600052603260045260246000fd5b60200101907effffffffffffffffffffffffffffffffffffffffffffffffffffffffffffff1916908160001a905350600a85611ebd9190612afe565b9450611e15565b8093505050505b919050565b6000808273ffffffffffffffffffffffffffffffffffffffff163b119050919050565b828054611eff90612c19565b90600052602060002090601f016020900481019282611f215760008555611f68565b82601f10611f3a57805160ff1916838001178555611f68565b82800160010185558215611f68579182015b82811115611f67578251825591602001919060010190611f4c565b5b509050611f759190611f79565b5090565b5b80821115611f92576000816000905550600101611f7a565b5090565b6000611fa9611fa484612a03565b6129de565b905082815260208101848484011115611fc157600080fd5b611fcc848285612bd7565b509392505050565b6000611fe7611fe284612a34565b6129de565b905082815260208101848484011115611fff57600080fd5b61200a848285612bd7565b509392505050565b60008135905061202181613308565b92915050565b6000813590506120368161331f565b92915050565b60008135905061204b81613336565b92915050565b60008151905061206081613336565b92915050565b600082601f83011261207757600080fd5b8135612087848260208601611f96565b91505092915050565b600082601f8301126120a157600080fd5b81356120b1848260208601611fd4565b91505092915050565b6000813590506120c98161334d565b92915050565b6000602082840312156120e157600080fd5b60006120ef84828501612012565b91505092915050565b6000806040838503121561210b57600080fd5b600061211985828601612012565b925050602061212a85828601612012565b9150509250929050565b60008060006060848603121561214957600080fd5b600061215786828701612012565b935050602061216886828701612012565b9250506040612179868287016120ba565b9150509250925092565b6000806000806080858703121561219957600080fd5b60006121a787828801612012565b94505060206121b887828801612012565b93505060406121c9878288016120ba565b925050606085013567ffffffffffffffff8111156121e657600080fd5b6121f287828801612066565b91505092959194509250565b6000806040838503121561221157600080fd5b600061221f85828601612012565b925050602061223085828601612027565b9150509250929050565b6000806040838503121561224d57600080fd5b600061225b85828601612012565b925050602061226c858286016120ba565b9150509250929050565b60006020828403121561228857600080fd5b60006122968482850161203c565b91505092915050565b6000602082840312156122b157600080fd5b60006122bf84828501612051565b91505092915050565b6000602082840312156122da57600080fd5b600082013567ffffffffffffffff8111156122f457600080fd5b61230084828501612090565b91505092915050565b60006020828403121561231b57600080fd5b6000612329848285016120ba565b91505092915050565b61233b81612b63565b82525050565b61234a81612b75565b82525050565b600061235b82612a65565b6123658185612a7b565b9350612375818560208601612be6565b61237e81612db2565b840191505092915050565b600061239482612a70565b61239e8185612a8c565b93506123ae818560208601612be6565b6123b781612db2565b840191505092915050565b60006123cd82612a70565b6123d78185612a9d565b93506123e7818560208601612be6565b80840191505092915050565b6000612400603283612a8c565b915061240b82612dc3565b604082019050919050565b6000612423602683612a8c565b915061242e82612e12565b604082019050919050565b6000612446602583612a8c565b915061245182612e61565b604082019050919050565b6000612469601c83612a8c565b915061247482612eb0565b602082019050919050565b600061248c602483612a8c565b915061249782612ed9565b604082019050919050565b60006124af601983612a8c565b91506124ba82612f28565b602082019050919050565b60006124d2602c83612a8c565b91506124dd82612f51565b604082019050919050565b60006124f5603883612a8c565b915061250082612fa0565b604082019050919050565b6000612518602a83612a8c565b915061252382612fef565b604082019050919050565b600061253b602983612a8c565b91506125468261303e565b604082019050919050565b600061255e602e83612a8c565b91506125698261308d565b604082019050919050565b6000612581602083612a8c565b915061258c826130dc565b602082019050919050565b60006125a4603183612a8c565b91506125af82613105565b604082019050919050565b60006125c7602c83612a8c565b91506125d282613154565b604082019050919050565b60006125ea602083612a8c565b91506125f5826131a3565b602082019050919050565b600061260d602f83612a8c565b9150612618826131cc565b604082019050919050565b6000612630602183612a8c565b915061263b8261321b565b604082019050919050565b6000612653603183612a8c565b915061265e8261326a565b604082019050919050565b6000612676602183612a8c565b9150612681826132b9565b604082019050919050565b61269581612bcd565b82525050565b60006126a782856123c2565b91506126b382846123c2565b91508190509392505050565b60006020820190506126d46000830184612332565b92915050565b60006080820190506126ef6000830187612332565b6126fc6020830186612332565b612709604083018561268c565b818103606083015261271b8184612350565b905095945050505050565b600060208201905061273b6000830184612341565b92915050565b6000602082019050818103600083015261275b8184612389565b905092915050565b6000602082019050818103600083015261277c816123f3565b9050919050565b6000602082019050818103600083015261279c81612416565b9050919050565b600060208201905081810360008301526127bc81612439565b9050919050565b600060208201905081810360008301526127dc8161245c565b9050919050565b600060208201905081810360008301526127fc8161247f565b9050919050565b6000602082019050818103600083015261281c816124a2565b9050919050565b6000602082019050818103600083015261283c816124c5565b9050919050565b6000602082019050818103600083015261285c816124e8565b9050919050565b6000602082019050818103600083015261287c8161250b565b9050919050565b6000602082019050818103600083015261289c8161252e565b9050919050565b600060208201905081810360008301526128bc81612551565b9050919050565b600060208201905081810360008301526128dc81612574565b9050919050565b600060208201905081810360008301526128fc81612597565b9050919050565b6000602082019050818103600083015261291c816125ba565b9050919050565b6000602082019050818103600083015261293c816125dd565b9050919050565b6000602082019050818103600083015261295c81612600565b9050919050565b6000602082019050818103600083015261297c81612623565b9050919050565b6000602082019050818103600083015261299c81612646565b9050919050565b600060208201905081810360008301526129bc81612669565b9050919050565b60006020820190506129d8600083018461268c565b92915050565b60006129e86129f9565b90506129f48282612c4b565b919050565b6000604051905090565b600067ffffffffffffffff821115612a1e57612a1d612d83565b5b612a2782612db2565b9050602081019050919050565b600067ffffffffffffffff821115612a4f57612a4e612d83565b5b612a5882612db2565b9050602081019050919050565b600081519050919050565b600081519050919050565b600082825260208201905092915050565b600082825260208201905092915050565b600081905092915050565b6000612ab382612bcd565b9150612abe83612bcd565b9250827fffffffffffffffffffffffffffffffffffffffffffffffffffffffffffffffff03821115612af357612af2612cf6565b5b828201905092915050565b6000612b0982612bcd565b9150612b1483612bcd565b925082612b2457612b23612d25565b5b828204905092915050565b6000612b3a82612bcd565b9150612b4583612bcd565b925082821015612b5857612b57612cf6565b5b828203905092915050565b6000612b6e82612bad565b9050919050565b60008115159050919050565b60007fffffffff0000000000000000000000000000000000000000000000000000000082169050919050565b600073ffffffffffffffffffffffffffffffffffffffff82169050919050565b6000819050919050565b82818337600083830152505050565b60005b83811015612c04578082015181840152602081019050612be9565b83811115612c13576000848401525b50505050565b60006002820490506001821680612c3157607f821691505b60208210811415612c4557612c44612d54565b5b50919050565b612c5482612db2565b810181811067ffffffffffffffff82111715612c7357612c72612d83565b5b80604052505050565b6000612c8782612bcd565b91507fffffffffffffffffffffffffffffffffffffffffffffffffffffffffffffffff821415612cba57612cb9612cf6565b5b600182019050919050565b6000612cd082612bcd565b9150612cdb83612bcd565b925082612ceb57612cea612d25565b5b828206905092915050565b7f4e487b7100000000000000000000000000000000000000000000000000000000600052601160045260246000fd5b7f4e487b7100000000000000000000000000000000000000000000000000000000600052601260045260246000fd5b7f4e487b7100000000000000000000000000000000000000000000000000000000600052602260045260246000fd5b7f4e487b7100000000000000000000000000000000000000000000000000000000600052604160045260246000fd5b6000601f19601f8301169050919050565b7f4552433732313a207472616e7366657220746f206e6f6e20455243373231526560008201527f63656976657220696d706c656d656e7465720000000000000000000000000000602082015250565b7f4f776e61626c653a206e6577206f776e657220697320746865207a65726f206160008201527f6464726573730000000000000000000000000000000000000000000000000000602082015250565b7f4552433732313a207472616e736665722066726f6d20696e636f72726563742060008201527f6f776e6572000000000000000000000000000000000000000000000000000000602082015250565b7f4552433732313a20746f6b656e20616c7265616479206d696e74656400000000600082015250565b7f4552433732313a207472616e7366657220746f20746865207a65726f2061646460008201527f7265737300000000000000000000000000000000000000000000000000000000602082015250565b7f4552433732313a20617070726f766520746f2063616c6c657200000000000000600082015250565b7f4552433732313a206f70657261746f7220717565727920666f72206e6f6e657860008201527f697374656e7420746f6b656e0000000000000000000000000000000000000000602082015250565b7f4552433732313a20617070726f76652063616c6c6572206973206e6f74206f7760008201527f6e6572206e6f7220617070726f76656420666f7220616c6c0000000000000000602082015250565b7f4552433732313a2062616c616e636520717565727920666f7220746865207a6560008201527f726f206164647265737300000000000000000000000000000000000000000000602082015250565b7f4552433732313a206f776e657220717565727920666f72206e6f6e657869737460008201527f656e7420746f6b656e0000000000000000000000000000000000000000000000602082015250565b7f45524337323155524953746f726167653a2055524920736574206f66206e6f6e60008201527f6578697374656e7420746f6b656e000000000000000000000000000000000000602082015250565b7f4552433732313a206d696e7420746f20746865207a65726f2061646472657373600082015250565b7f45524337323155524953746f726167653a2055524920717565727920666f722060008201527f6e6f6e6578697374656e7420746f6b656e000000000000000000000000000000602082015250565b7f4552433732313a20617070726f76656420717565727920666f72206e6f6e657860008201527f697374656e7420746f6b656e0000000000000000000000000000000000000000602082015250565b7f4f776e61626c653a2063616c6c6572206973206e6f7420746865206f776e6572600082015250565b7f4552433732314d657461646174613a2055524920717565727920666f72206e6f60008201527f6e6578697374656e7420746f6b656e0000000000000000000000000000000000602082015250565b7f4552433732313a20617070726f76616c20746f2063757272656e74206f776e6560008201527f7200000000000000000000000000000000000000000000000000000000000000602082015250565b7f4552433732313a207472616e736665722063616c6c6572206973206e6f74206f60008201527f776e6572206e6f7220617070726f766564000000000000000000000000000000602082015250565b7f4e6f7420656e6f756768204554482073656e743b20636865636b20707269636560008201527f2100000000000000000000000000000000000000000000000000000000000000602082015250565b61331181612b63565b811461331c57600080fd5b50565b61332881612b75565b811461333357600080fd5b50565b61333f81612b81565b811461334a57600080fd5b50565b61335681612bcd565b811461336157600080fd5b5056fea2646970667358221220cf32470d4ca4be076d5064a16d3853b678b6f865eda9245f632dd23db80c9cc664736f6c63430008040033",
  "linkReferences": {},
  "deployedLinkReferences": {}
}